{"contracts/certificate2.sol":{"GenerateCertificate":{"abi":[{"inputs":[{"internalType":"string","name":"_email","type":"string"},{"internalType":"string","name":"_certName","type":"string"},{"internalType":"string","name":"_CertificationLevel","type":"string"},{"internalType":"string[]","name":"_issuerDetails","type":"string[]"},{"internalType":"string","name":"_creationDate","type":"string"},{"internalType":"string","name":"_certId","type":"string"},{"internalType":"uint256","name":"_fees","type":"uint256"},{"internalType":"uint256","name":"_maximumMarks","type":"uint256"},{"internalType":"uint256","name":"_marks","type":"uint256"}],"stateMutability":"nonpayable","type":"constructor"},{"inputs":[],"name":"certificate","outputs":[{"internalType":"string","name":"email","type":"string"},{"internalType":"string","name":"certName","type":"string"},{"internalType":"string","name":"CertificationLevel","type":"string"},{"internalType":"string","name":"issuerName","type":"string"},{"internalType":"string","name":"issuerId","type":"string"},{"internalType":"string","name":"issuedBy","type":"string"},{"internalType":"string","name":"issuedByDesgnation","type":"string"},{"internalType":"string","name":"creationDate","type":"string"},{"internalType":"string","name":"certId","type":"string"},{"internalType":"uint256","name":"fees","type":"uint256"},{"internalType":"uint256","name":"maximumMarks","type":"uint256"},{"internalType":"uint256","name":"marks","type":"uint256"}],"stateMutability":"view","type":"function"}],"evm":{"bytecode":{"linkReferences":{},"object":"60806040523480156200001157600080fd5b506040516200117f3803806200117f8339818101604052810190620000379190620004d8565b6040518061018001604052808a8152602001898152602001888152602001876000815181106200006c576200006b62000671565b5b602002602001015181526020018760018151811062000090576200008f62000671565b5b6020026020010151815260200187600281518110620000b457620000b362000671565b5b6020026020010151815260200187600381518110620000d857620000d762000671565b5b6020026020010151815260200186815260200185815260200184815260200183815260200182815250600080820151816000019081620001199190620008e1565b506020820151816001019081620001319190620008e1565b506040820151816002019081620001499190620008e1565b506060820151816003019081620001619190620008e1565b506080820151816004019081620001799190620008e1565b5060a0820151816005019081620001919190620008e1565b5060c0820151816006019081620001a99190620008e1565b5060e0820151816007019081620001c19190620008e1565b50610100820151816008019081620001da9190620008e1565b50610120820151816009015561014082015181600a015561016082015181600b0155905050505050505050505050620009c8565b6000604051905090565b600080fd5b600080fd5b600080fd5b600080fd5b6000601f19601f8301169050919050565b7f4e487b7100000000000000000000000000000000000000000000000000000000600052604160045260246000fd5b62000277826200022c565b810181811067ffffffffffffffff821117156200029957620002986200023d565b5b80604052505050565b6000620002ae6200020e565b9050620002bc82826200026c565b919050565b600067ffffffffffffffff821115620002df57620002de6200023d565b5b620002ea826200022c565b9050602081019050919050565b60005b8381101562000317578082015181840152602081019050620002fa565b60008484015250505050565b60006200033a6200033484620002c1565b620002a2565b90508281526020810184848401111562000359576200035862000227565b5b62000366848285620002f7565b509392505050565b600082601f83011262000386576200038562000222565b5b81516200039884826020860162000323565b91505092915050565b600067ffffffffffffffff821115620003bf57620003be6200023d565b5b602082029050602081019050919050565b600080fd5b6000620003ec620003e684620003a1565b620002a2565b90508083825260208201905060208402830185811115620004125762000411620003d0565b5b835b818110156200046057805167ffffffffffffffff8111156200043b576200043a62000222565b5b8086016200044a89826200036e565b8552602085019450505060208101905062000414565b5050509392505050565b600082601f83011262000482576200048162000222565b5b815162000494848260208601620003d5565b91505092915050565b6000819050919050565b620004b2816200049d565b8114620004be57600080fd5b50565b600081519050620004d281620004a7565b92915050565b60008060008060008060008060006101208a8c031215620004fe57620004fd62000218565b5b60008a015167ffffffffffffffff8111156200051f576200051e6200021d565b5b6200052d8c828d016200036e565b99505060208a015167ffffffffffffffff8111156200055157620005506200021d565b5b6200055f8c828d016200036e565b98505060408a015167ffffffffffffffff8111156200058357620005826200021d565b5b620005918c828d016200036e565b97505060608a015167ffffffffffffffff811115620005b557620005b46200021d565b5b620005c38c828d016200046a565b96505060808a015167ffffffffffffffff811115620005e757620005e66200021d565b5b620005f58c828d016200036e565b95505060a08a015167ffffffffffffffff8111156200061957620006186200021d565b5b620006278c828d016200036e565b94505060c06200063a8c828d01620004c1565b93505060e06200064d8c828d01620004c1565b925050610100620006618c828d01620004c1565b9150509295985092959850929598565b7f4e487b7100000000000000000000000000000000000000000000000000000000600052603260045260246000fd5b600081519050919050565b7f4e487b7100000000000000000000000000000000000000000000000000000000600052602260045260246000fd5b60006002820490506001821680620006f357607f821691505b602082108103620007095762000708620006ab565b5b50919050565b60008190508160005260206000209050919050565b60006020601f8301049050919050565b600082821b905092915050565b600060088302620007737fffffffffffffffffffffffffffffffffffffffffffffffffffffffffffffffff8262000734565b6200077f868362000734565b95508019841693508086168417925050509392505050565b6000819050919050565b6000620007c2620007bc620007b6846200049d565b62000797565b6200049d565b9050919050565b6000819050919050565b620007de83620007a1565b620007f6620007ed82620007c9565b84845462000741565b825550505050565b600090565b6200080d620007fe565b6200081a818484620007d3565b505050565b5b8181101562000842576200083660008262000803565b60018101905062000820565b5050565b601f82111562000891576200085b816200070f565b620008668462000724565b8101602085101562000876578190505b6200088e620008858562000724565b8301826200081f565b50505b505050565b600082821c905092915050565b6000620008b66000198460080262000896565b1980831691505092915050565b6000620008d18383620008a3565b9150826002028217905092915050565b620008ec82620006a0565b67ffffffffffffffff8111156200090857620009076200023d565b5b620009148254620006da565b6200092182828562000846565b600060209050601f83116001811462000959576000841562000944578287015190505b620009508582620008c3565b865550620009c0565b601f19841662000969866200070f565b60005b8281101562000993578489015182556001820191506020850194506020810190506200096c565b86831015620009b35784890151620009af601f891682620008a3565b8355505b6001600288020188555050505b505050505050565b6107a780620009d86000396000f3fe608060405234801561001057600080fd5b506004361061002b5760003560e01c80632dbf7b9814610030575b600080fd5b610038610059565b6040516100509c9b9a99989796959493929190610618565b60405180910390f35b600080600001805461006a90610740565b80601f016020809104026020016040519081016040528092919081815260200182805461009690610740565b80156100e35780601f106100b8576101008083540402835291602001916100e3565b820191906000526020600020905b8154815290600101906020018083116100c657829003601f168201915b5050505050908060010180546100f890610740565b80601f016020809104026020016040519081016040528092919081815260200182805461012490610740565b80156101715780601f1061014657610100808354040283529160200191610171565b820191906000526020600020905b81548152906001019060200180831161015457829003601f168201915b50505050509080600201805461018690610740565b80601f01602080910402602001604051908101604052809291908181526020018280546101b290610740565b80156101ff5780601f106101d4576101008083540402835291602001916101ff565b820191906000526020600020905b8154815290600101906020018083116101e257829003601f168201915b50505050509080600301805461021490610740565b80601f016020809104026020016040519081016040528092919081815260200182805461024090610740565b801561028d5780601f106102625761010080835404028352916020019161028d565b820191906000526020600020905b81548152906001019060200180831161027057829003601f168201915b5050505050908060040180546102a290610740565b80601f01602080910402602001604051908101604052809291908181526020018280546102ce90610740565b801561031b5780601f106102f05761010080835404028352916020019161031b565b820191906000526020600020905b8154815290600101906020018083116102fe57829003601f168201915b50505050509080600501805461033090610740565b80601f016020809104026020016040519081016040528092919081815260200182805461035c90610740565b80156103a95780601f1061037e576101008083540402835291602001916103a9565b820191906000526020600020905b81548152906001019060200180831161038c57829003601f168201915b5050505050908060060180546103be90610740565b80601f01602080910402602001604051908101604052809291908181526020018280546103ea90610740565b80156104375780601f1061040c57610100808354040283529160200191610437565b820191906000526020600020905b81548152906001019060200180831161041a57829003601f168201915b50505050509080600701805461044c90610740565b80601f016020809104026020016040519081016040528092919081815260200182805461047890610740565b80156104c55780601f1061049a576101008083540402835291602001916104c5565b820191906000526020600020905b8154815290600101906020018083116104a857829003601f168201915b5050505050908060080180546104da90610740565b80601f016020809104026020016040519081016040528092919081815260200182805461050690610740565b80156105535780601f1061052857610100808354040283529160200191610553565b820191906000526020600020905b81548152906001019060200180831161053657829003601f168201915b50505050509080600901549080600a01549080600b015490508c565b600081519050919050565b600082825260208201905092915050565b60005b838110156105a957808201518184015260208101905061058e565b60008484015250505050565b6000601f19601f8301169050919050565b60006105d18261056f565b6105db818561057a565b93506105eb81856020860161058b565b6105f4816105b5565b840191505092915050565b6000819050919050565b610612816105ff565b82525050565b6000610180820190508181036000830152610633818f6105c6565b90508181036020830152610647818e6105c6565b9050818103604083015261065b818d6105c6565b9050818103606083015261066f818c6105c6565b90508181036080830152610683818b6105c6565b905081810360a0830152610697818a6105c6565b905081810360c08301526106ab81896105c6565b905081810360e08301526106bf81886105c6565b90508181036101008301526106d481876105c6565b90506106e4610120830186610609565b6106f2610140830185610609565b610700610160830184610609565b9d9c50505050505050505050505050565b7f4e487b7100000000000000000000000000000000000000000000000000000000600052602260045260246000fd5b6000600282049050600182168061075857607f821691505b60208210810361076b5761076a610711565b5b5091905056fea26469706673582212200303330c3572f69058ab12776a85d141260632f979353287cdf42a37664b99d364736f6c63430008130033","opcodes":"PUSH1 0x80 PUSH1 0x40 MSTORE CALLVALUE DUP1 ISZERO PUSH3 0x11 JUMPI PUSH1 0x0 DUP1 REVERT JUMPDEST POP PUSH1 0x40 MLOAD PUSH3 0x117F CODESIZE SUB DUP1 PUSH3 0x117F DUP4 CODECOPY DUP2 DUP2 ADD PUSH1 0x40 MSTORE DUP2 ADD SWAP1 PUSH3 0x37 SWAP2 SWAP1 PUSH3 0x4D8 JUMP JUMPDEST PUSH1 0x40 MLOAD DUP1 PUSH2 0x180 ADD PUSH1 0x40 MSTORE DUP1 DUP11 DUP2 MSTORE PUSH1 0x20 ADD DUP10 DUP2 MSTORE PUSH1 0x20 ADD DUP9 DUP2 MSTORE PUSH1 0x20 ADD DUP8 PUSH1 0x0 DUP2 MLOAD DUP2 LT PUSH3 0x6C JUMPI PUSH3 0x6B PUSH3 0x671 JUMP JUMPDEST JUMPDEST PUSH1 0x20 MUL PUSH1 0x20 ADD ADD MLOAD DUP2 MSTORE PUSH1 0x20 ADD DUP8 PUSH1 0x1 DUP2 MLOAD DUP2 LT PUSH3 0x90 JUMPI PUSH3 0x8F PUSH3 0x671 JUMP JUMPDEST JUMPDEST PUSH1 0x20 MUL PUSH1 0x20 ADD ADD MLOAD DUP2 MSTORE PUSH1 0x20 ADD DUP8 PUSH1 0x2 DUP2 MLOAD DUP2 LT PUSH3 0xB4 JUMPI PUSH3 0xB3 PUSH3 0x671 JUMP JUMPDEST JUMPDEST PUSH1 0x20 MUL PUSH1 0x20 ADD ADD MLOAD DUP2 MSTORE PUSH1 0x20 ADD DUP8 PUSH1 0x3 DUP2 MLOAD DUP2 LT PUSH3 0xD8 JUMPI PUSH3 0xD7 PUSH3 0x671 JUMP JUMPDEST JUMPDEST PUSH1 0x20 MUL PUSH1 0x20 ADD ADD MLOAD DUP2 MSTORE PUSH1 0x20 ADD DUP7 DUP2 MSTORE PUSH1 0x20 ADD DUP6 DUP2 MSTORE PUSH1 0x20 ADD DUP5 DUP2 MSTORE PUSH1 0x20 ADD DUP4 DUP2 MSTORE PUSH1 0x20 ADD DUP3 DUP2 MSTORE POP PUSH1 0x0 DUP1 DUP3 ADD MLOAD DUP2 PUSH1 0x0 ADD SWAP1 DUP2 PUSH3 0x119 SWAP2 SWAP1 PUSH3 0x8E1 JUMP JUMPDEST POP PUSH1 0x20 DUP3 ADD MLOAD DUP2 PUSH1 0x1 ADD SWAP1 DUP2 PUSH3 0x131 SWAP2 SWAP1 PUSH3 0x8E1 JUMP JUMPDEST POP PUSH1 0x40 DUP3 ADD MLOAD DUP2 PUSH1 0x2 ADD SWAP1 DUP2 PUSH3 0x149 SWAP2 SWAP1 PUSH3 0x8E1 JUMP JUMPDEST POP PUSH1 0x60 DUP3 ADD MLOAD DUP2 PUSH1 0x3 ADD SWAP1 DUP2 PUSH3 0x161 SWAP2 SWAP1 PUSH3 0x8E1 JUMP JUMPDEST POP PUSH1 0x80 DUP3 ADD MLOAD DUP2 PUSH1 0x4 ADD SWAP1 DUP2 PUSH3 0x179 SWAP2 SWAP1 PUSH3 0x8E1 JUMP JUMPDEST POP PUSH1 0xA0 DUP3 ADD MLOAD DUP2 PUSH1 0x5 ADD SWAP1 DUP2 PUSH3 0x191 SWAP2 SWAP1 PUSH3 0x8E1 JUMP JUMPDEST POP PUSH1 0xC0 DUP3 ADD MLOAD DUP2 PUSH1 0x6 ADD SWAP1 DUP2 PUSH3 0x1A9 SWAP2 SWAP1 PUSH3 0x8E1 JUMP JUMPDEST POP PUSH1 0xE0 DUP3 ADD MLOAD DUP2 PUSH1 0x7 ADD SWAP1 DUP2 PUSH3 0x1C1 SWAP2 SWAP1 PUSH3 0x8E1 JUMP JUMPDEST POP PUSH2 0x100 DUP3 ADD MLOAD DUP2 PUSH1 0x8 ADD SWAP1 DUP2 PUSH3 0x1DA SWAP2 SWAP1 PUSH3 0x8E1 JUMP JUMPDEST POP PUSH2 0x120 DUP3 ADD MLOAD DUP2 PUSH1 0x9 ADD SSTORE PUSH2 0x140 DUP3 ADD MLOAD DUP2 PUSH1 0xA ADD SSTORE PUSH2 0x160 DUP3 ADD MLOAD DUP2 PUSH1 0xB ADD SSTORE SWAP1 POP POP POP POP POP POP POP POP POP POP POP PUSH3 0x9C8 JUMP JUMPDEST PUSH1 0x0 PUSH1 0x40 MLOAD SWAP1 POP SWAP1 JUMP JUMPDEST PUSH1 0x0 DUP1 REVERT JUMPDEST PUSH1 0x0 DUP1 REVERT JUMPDEST PUSH1 0x0 DUP1 REVERT JUMPDEST PUSH1 0x0 DUP1 REVERT JUMPDEST PUSH1 0x0 PUSH1 0x1F NOT PUSH1 0x1F DUP4 ADD AND SWAP1 POP SWAP2 SWAP1 POP JUMP JUMPDEST PUSH32 0x4E487B7100000000000000000000000000000000000000000000000000000000 PUSH1 0x0 MSTORE PUSH1 0x41 PUSH1 0x4 MSTORE PUSH1 0x24 PUSH1 0x0 REVERT JUMPDEST PUSH3 0x277 DUP3 PUSH3 0x22C JUMP JUMPDEST DUP2 ADD DUP2 DUP2 LT PUSH8 0xFFFFFFFFFFFFFFFF DUP3 GT OR ISZERO PUSH3 0x299 JUMPI PUSH3 0x298 PUSH3 0x23D JUMP JUMPDEST JUMPDEST DUP1 PUSH1 0x40 MSTORE POP POP POP JUMP JUMPDEST PUSH1 0x0 PUSH3 0x2AE PUSH3 0x20E JUMP JUMPDEST SWAP1 POP PUSH3 0x2BC DUP3 DUP3 PUSH3 0x26C JUMP JUMPDEST SWAP2 SWAP1 POP JUMP JUMPDEST PUSH1 0x0 PUSH8 0xFFFFFFFFFFFFFFFF DUP3 GT ISZERO PUSH3 0x2DF JUMPI PUSH3 0x2DE PUSH3 0x23D JUMP JUMPDEST JUMPDEST PUSH3 0x2EA DUP3 PUSH3 0x22C JUMP JUMPDEST SWAP1 POP PUSH1 0x20 DUP2 ADD SWAP1 POP SWAP2 SWAP1 POP JUMP JUMPDEST PUSH1 0x0 JUMPDEST DUP4 DUP2 LT ISZERO PUSH3 0x317 JUMPI DUP1 DUP3 ADD MLOAD DUP2 DUP5 ADD MSTORE PUSH1 0x20 DUP2 ADD SWAP1 POP PUSH3 0x2FA JUMP JUMPDEST PUSH1 0x0 DUP5 DUP5 ADD MSTORE POP POP POP POP JUMP JUMPDEST PUSH1 0x0 PUSH3 0x33A PUSH3 0x334 DUP5 PUSH3 0x2C1 JUMP JUMPDEST PUSH3 0x2A2 JUMP JUMPDEST SWAP1 POP DUP3 DUP2 MSTORE PUSH1 0x20 DUP2 ADD DUP5 DUP5 DUP5 ADD GT ISZERO PUSH3 0x359 JUMPI PUSH3 0x358 PUSH3 0x227 JUMP JUMPDEST JUMPDEST PUSH3 0x366 DUP5 DUP3 DUP6 PUSH3 0x2F7 JUMP JUMPDEST POP SWAP4 SWAP3 POP POP POP JUMP JUMPDEST PUSH1 0x0 DUP3 PUSH1 0x1F DUP4 ADD SLT PUSH3 0x386 JUMPI PUSH3 0x385 PUSH3 0x222 JUMP JUMPDEST JUMPDEST DUP2 MLOAD PUSH3 0x398 DUP5 DUP3 PUSH1 0x20 DUP7 ADD PUSH3 0x323 JUMP JUMPDEST SWAP2 POP POP SWAP3 SWAP2 POP POP JUMP JUMPDEST PUSH1 0x0 PUSH8 0xFFFFFFFFFFFFFFFF DUP3 GT ISZERO PUSH3 0x3BF JUMPI PUSH3 0x3BE PUSH3 0x23D JUMP JUMPDEST JUMPDEST PUSH1 0x20 DUP3 MUL SWAP1 POP PUSH1 0x20 DUP2 ADD SWAP1 POP SWAP2 SWAP1 POP JUMP JUMPDEST PUSH1 0x0 DUP1 REVERT JUMPDEST PUSH1 0x0 PUSH3 0x3EC PUSH3 0x3E6 DUP5 PUSH3 0x3A1 JUMP JUMPDEST PUSH3 0x2A2 JUMP JUMPDEST SWAP1 POP DUP1 DUP4 DUP3 MSTORE PUSH1 0x20 DUP3 ADD SWAP1 POP PUSH1 0x20 DUP5 MUL DUP4 ADD DUP6 DUP2 GT ISZERO PUSH3 0x412 JUMPI PUSH3 0x411 PUSH3 0x3D0 JUMP JUMPDEST JUMPDEST DUP4 JUMPDEST DUP2 DUP2 LT ISZERO PUSH3 0x460 JUMPI DUP1 MLOAD PUSH8 0xFFFFFFFFFFFFFFFF DUP2 GT ISZERO PUSH3 0x43B JUMPI PUSH3 0x43A PUSH3 0x222 JUMP JUMPDEST JUMPDEST DUP1 DUP7 ADD PUSH3 0x44A DUP10 DUP3 PUSH3 0x36E JUMP JUMPDEST DUP6 MSTORE PUSH1 0x20 DUP6 ADD SWAP5 POP POP POP PUSH1 0x20 DUP2 ADD SWAP1 POP PUSH3 0x414 JUMP JUMPDEST POP POP POP SWAP4 SWAP3 POP POP POP JUMP JUMPDEST PUSH1 0x0 DUP3 PUSH1 0x1F DUP4 ADD SLT PUSH3 0x482 JUMPI PUSH3 0x481 PUSH3 0x222 JUMP JUMPDEST JUMPDEST DUP2 MLOAD PUSH3 0x494 DUP5 DUP3 PUSH1 0x20 DUP7 ADD PUSH3 0x3D5 JUMP JUMPDEST SWAP2 POP POP SWAP3 SWAP2 POP POP JUMP JUMPDEST PUSH1 0x0 DUP2 SWAP1 POP SWAP2 SWAP1 POP JUMP JUMPDEST PUSH3 0x4B2 DUP2 PUSH3 0x49D JUMP JUMPDEST DUP2 EQ PUSH3 0x4BE JUMPI PUSH1 0x0 DUP1 REVERT JUMPDEST POP JUMP JUMPDEST PUSH1 0x0 DUP2 MLOAD SWAP1 POP PUSH3 0x4D2 DUP2 PUSH3 0x4A7 JUMP JUMPDEST SWAP3 SWAP2 POP POP JUMP JUMPDEST PUSH1 0x0 DUP1 PUSH1 0x0 DUP1 PUSH1 0x0 DUP1 PUSH1 0x0 DUP1 PUSH1 0x0 PUSH2 0x120 DUP11 DUP13 SUB SLT ISZERO PUSH3 0x4FE JUMPI PUSH3 0x4FD PUSH3 0x218 JUMP JUMPDEST JUMPDEST PUSH1 0x0 DUP11 ADD MLOAD PUSH8 0xFFFFFFFFFFFFFFFF DUP2 GT ISZERO PUSH3 0x51F JUMPI PUSH3 0x51E PUSH3 0x21D JUMP JUMPDEST JUMPDEST PUSH3 0x52D DUP13 DUP3 DUP14 ADD PUSH3 0x36E JUMP JUMPDEST SWAP10 POP POP PUSH1 0x20 DUP11 ADD MLOAD PUSH8 0xFFFFFFFFFFFFFFFF DUP2 GT ISZERO PUSH3 0x551 JUMPI PUSH3 0x550 PUSH3 0x21D JUMP JUMPDEST JUMPDEST PUSH3 0x55F DUP13 DUP3 DUP14 ADD PUSH3 0x36E JUMP JUMPDEST SWAP9 POP POP PUSH1 0x40 DUP11 ADD MLOAD PUSH8 0xFFFFFFFFFFFFFFFF DUP2 GT ISZERO PUSH3 0x583 JUMPI PUSH3 0x582 PUSH3 0x21D JUMP JUMPDEST JUMPDEST PUSH3 0x591 DUP13 DUP3 DUP14 ADD PUSH3 0x36E JUMP JUMPDEST SWAP8 POP POP PUSH1 0x60 DUP11 ADD MLOAD PUSH8 0xFFFFFFFFFFFFFFFF DUP2 GT ISZERO PUSH3 0x5B5 JUMPI PUSH3 0x5B4 PUSH3 0x21D JUMP JUMPDEST JUMPDEST PUSH3 0x5C3 DUP13 DUP3 DUP14 ADD PUSH3 0x46A JUMP JUMPDEST SWAP7 POP POP PUSH1 0x80 DUP11 ADD MLOAD PUSH8 0xFFFFFFFFFFFFFFFF DUP2 GT ISZERO PUSH3 0x5E7 JUMPI PUSH3 0x5E6 PUSH3 0x21D JUMP JUMPDEST JUMPDEST PUSH3 0x5F5 DUP13 DUP3 DUP14 ADD PUSH3 0x36E JUMP JUMPDEST SWAP6 POP POP PUSH1 0xA0 DUP11 ADD MLOAD PUSH8 0xFFFFFFFFFFFFFFFF DUP2 GT ISZERO PUSH3 0x619 JUMPI PUSH3 0x618 PUSH3 0x21D JUMP JUMPDEST JUMPDEST PUSH3 0x627 DUP13 DUP3 DUP14 ADD PUSH3 0x36E JUMP JUMPDEST SWAP5 POP POP PUSH1 0xC0 PUSH3 0x63A DUP13 DUP3 DUP14 ADD PUSH3 0x4C1 JUMP JUMPDEST SWAP4 POP POP PUSH1 0xE0 PUSH3 0x64D DUP13 DUP3 DUP14 ADD PUSH3 0x4C1 JUMP JUMPDEST SWAP3 POP POP PUSH2 0x100 PUSH3 0x661 DUP13 DUP3 DUP14 ADD PUSH3 0x4C1 JUMP JUMPDEST SWAP2 POP POP SWAP3 SWAP6 SWAP9 POP SWAP3 SWAP6 SWAP9 POP SWAP3 SWAP6 SWAP9 JUMP JUMPDEST PUSH32 0x4E487B7100000000000000000000000000000000000000000000000000000000 PUSH1 0x0 MSTORE PUSH1 0x32 PUSH1 0x4 MSTORE PUSH1 0x24 PUSH1 0x0 REVERT JUMPDEST PUSH1 0x0 DUP2 MLOAD SWAP1 POP SWAP2 SWAP1 POP JUMP JUMPDEST PUSH32 0x4E487B7100000000000000000000000000000000000000000000000000000000 PUSH1 0x0 MSTORE PUSH1 0x22 PUSH1 0x4 MSTORE PUSH1 0x24 PUSH1 0x0 REVERT JUMPDEST PUSH1 0x0 PUSH1 0x2 DUP3 DIV SWAP1 POP PUSH1 0x1 DUP3 AND DUP1 PUSH3 0x6F3 JUMPI PUSH1 0x7F DUP3 AND SWAP2 POP JUMPDEST PUSH1 0x20 DUP3 LT DUP2 SUB PUSH3 0x709 JUMPI PUSH3 0x708 PUSH3 0x6AB JUMP JUMPDEST JUMPDEST POP SWAP2 SWAP1 POP JUMP JUMPDEST PUSH1 0x0 DUP2 SWAP1 POP DUP2 PUSH1 0x0 MSTORE PUSH1 0x20 PUSH1 0x0 KECCAK256 SWAP1 POP SWAP2 SWAP1 POP JUMP JUMPDEST PUSH1 0x0 PUSH1 0x20 PUSH1 0x1F DUP4 ADD DIV SWAP1 POP SWAP2 SWAP1 POP JUMP JUMPDEST PUSH1 0x0 DUP3 DUP3 SHL SWAP1 POP SWAP3 SWAP2 POP POP JUMP JUMPDEST PUSH1 0x0 PUSH1 0x8 DUP4 MUL PUSH3 0x773 PUSH32 0xFFFFFFFFFFFFFFFFFFFFFFFFFFFFFFFFFFFFFFFFFFFFFFFFFFFFFFFFFFFFFFFF DUP3 PUSH3 0x734 JUMP JUMPDEST PUSH3 0x77F DUP7 DUP4 PUSH3 0x734 JUMP JUMPDEST SWAP6 POP DUP1 NOT DUP5 AND SWAP4 POP DUP1 DUP7 AND DUP5 OR SWAP3 POP POP POP SWAP4 SWAP3 POP POP POP JUMP JUMPDEST PUSH1 0x0 DUP2 SWAP1 POP SWAP2 SWAP1 POP JUMP JUMPDEST PUSH1 0x0 PUSH3 0x7C2 PUSH3 0x7BC PUSH3 0x7B6 DUP5 PUSH3 0x49D JUMP JUMPDEST PUSH3 0x797 JUMP JUMPDEST PUSH3 0x49D JUMP JUMPDEST SWAP1 POP SWAP2 SWAP1 POP JUMP JUMPDEST PUSH1 0x0 DUP2 SWAP1 POP SWAP2 SWAP1 POP JUMP JUMPDEST PUSH3 0x7DE DUP4 PUSH3 0x7A1 JUMP JUMPDEST PUSH3 0x7F6 PUSH3 0x7ED DUP3 PUSH3 0x7C9 JUMP JUMPDEST DUP5 DUP5 SLOAD PUSH3 0x741 JUMP JUMPDEST DUP3 SSTORE POP POP POP POP JUMP JUMPDEST PUSH1 0x0 SWAP1 JUMP JUMPDEST PUSH3 0x80D PUSH3 0x7FE JUMP JUMPDEST PUSH3 0x81A DUP2 DUP5 DUP5 PUSH3 0x7D3 JUMP JUMPDEST POP POP POP JUMP JUMPDEST JUMPDEST DUP2 DUP2 LT ISZERO PUSH3 0x842 JUMPI PUSH3 0x836 PUSH1 0x0 DUP3 PUSH3 0x803 JUMP JUMPDEST PUSH1 0x1 DUP2 ADD SWAP1 POP PUSH3 0x820 JUMP JUMPDEST POP POP JUMP JUMPDEST PUSH1 0x1F DUP3 GT ISZERO PUSH3 0x891 JUMPI PUSH3 0x85B DUP2 PUSH3 0x70F JUMP JUMPDEST PUSH3 0x866 DUP5 PUSH3 0x724 JUMP JUMPDEST DUP2 ADD PUSH1 0x20 DUP6 LT ISZERO PUSH3 0x876 JUMPI DUP2 SWAP1 POP JUMPDEST PUSH3 0x88E PUSH3 0x885 DUP6 PUSH3 0x724 JUMP JUMPDEST DUP4 ADD DUP3 PUSH3 0x81F JUMP JUMPDEST POP POP JUMPDEST POP POP POP JUMP JUMPDEST PUSH1 0x0 DUP3 DUP3 SHR SWAP1 POP SWAP3 SWAP2 POP POP JUMP JUMPDEST PUSH1 0x0 PUSH3 0x8B6 PUSH1 0x0 NOT DUP5 PUSH1 0x8 MUL PUSH3 0x896 JUMP JUMPDEST NOT DUP1 DUP4 AND SWAP2 POP POP SWAP3 SWAP2 POP POP JUMP JUMPDEST PUSH1 0x0 PUSH3 0x8D1 DUP4 DUP4 PUSH3 0x8A3 JUMP JUMPDEST SWAP2 POP DUP3 PUSH1 0x2 MUL DUP3 OR SWAP1 POP SWAP3 SWAP2 POP POP JUMP JUMPDEST PUSH3 0x8EC DUP3 PUSH3 0x6A0 JUMP JUMPDEST PUSH8 0xFFFFFFFFFFFFFFFF DUP2 GT ISZERO PUSH3 0x908 JUMPI PUSH3 0x907 PUSH3 0x23D JUMP JUMPDEST JUMPDEST PUSH3 0x914 DUP3 SLOAD PUSH3 0x6DA JUMP JUMPDEST PUSH3 0x921 DUP3 DUP3 DUP6 PUSH3 0x846 JUMP JUMPDEST PUSH1 0x0 PUSH1 0x20 SWAP1 POP PUSH1 0x1F DUP4 GT PUSH1 0x1 DUP2 EQ PUSH3 0x959 JUMPI PUSH1 0x0 DUP5 ISZERO PUSH3 0x944 JUMPI DUP3 DUP8 ADD MLOAD SWAP1 POP JUMPDEST PUSH3 0x950 DUP6 DUP3 PUSH3 0x8C3 JUMP JUMPDEST DUP7 SSTORE POP PUSH3 0x9C0 JUMP JUMPDEST PUSH1 0x1F NOT DUP5 AND PUSH3 0x969 DUP7 PUSH3 0x70F JUMP JUMPDEST PUSH1 0x0 JUMPDEST DUP3 DUP2 LT ISZERO PUSH3 0x993 JUMPI DUP5 DUP10 ADD MLOAD DUP3 SSTORE PUSH1 0x1 DUP3 ADD SWAP2 POP PUSH1 0x20 DUP6 ADD SWAP5 POP PUSH1 0x20 DUP2 ADD SWAP1 POP PUSH3 0x96C JUMP JUMPDEST DUP7 DUP4 LT ISZERO PUSH3 0x9B3 JUMPI DUP5 DUP10 ADD MLOAD PUSH3 0x9AF PUSH1 0x1F DUP10 AND DUP3 PUSH3 0x8A3 JUMP JUMPDEST DUP4 SSTORE POP JUMPDEST PUSH1 0x1 PUSH1 0x2 DUP9 MUL ADD DUP9 SSTORE POP POP POP JUMPDEST POP POP POP POP POP POP JUMP JUMPDEST PUSH2 0x7A7 DUP1 PUSH3 0x9D8 PUSH1 0x0 CODECOPY PUSH1 0x0 RETURN INVALID PUSH1 0x80 PUSH1 0x40 MSTORE CALLVALUE DUP1 ISZERO PUSH2 0x10 JUMPI PUSH1 0x0 DUP1 REVERT JUMPDEST POP PUSH1 0x4 CALLDATASIZE LT PUSH2 0x2B JUMPI PUSH1 0x0 CALLDATALOAD PUSH1 0xE0 SHR DUP1 PUSH4 0x2DBF7B98 EQ PUSH2 0x30 JUMPI JUMPDEST PUSH1 0x0 DUP1 REVERT JUMPDEST PUSH2 0x38 PUSH2 0x59 JUMP JUMPDEST PUSH1 0x40 MLOAD PUSH2 0x50 SWAP13 SWAP12 SWAP11 SWAP10 SWAP9 SWAP8 SWAP7 SWAP6 SWAP5 SWAP4 SWAP3 SWAP2 SWAP1 PUSH2 0x618 JUMP JUMPDEST PUSH1 0x40 MLOAD DUP1 SWAP2 SUB SWAP1 RETURN JUMPDEST PUSH1 0x0 DUP1 PUSH1 0x0 ADD DUP1 SLOAD PUSH2 0x6A SWAP1 PUSH2 0x740 JUMP JUMPDEST DUP1 PUSH1 0x1F ADD PUSH1 0x20 DUP1 SWAP2 DIV MUL PUSH1 0x20 ADD PUSH1 0x40 MLOAD SWAP1 DUP2 ADD PUSH1 0x40 MSTORE DUP1 SWAP3 SWAP2 SWAP1 DUP2 DUP2 MSTORE PUSH1 0x20 ADD DUP3 DUP1 SLOAD PUSH2 0x96 SWAP1 PUSH2 0x740 JUMP JUMPDEST DUP1 ISZERO PUSH2 0xE3 JUMPI DUP1 PUSH1 0x1F LT PUSH2 0xB8 JUMPI PUSH2 0x100 DUP1 DUP4 SLOAD DIV MUL DUP4 MSTORE SWAP2 PUSH1 0x20 ADD SWAP2 PUSH2 0xE3 JUMP JUMPDEST DUP3 ADD SWAP2 SWAP1 PUSH1 0x0 MSTORE PUSH1 0x20 PUSH1 0x0 KECCAK256 SWAP1 JUMPDEST DUP2 SLOAD DUP2 MSTORE SWAP1 PUSH1 0x1 ADD SWAP1 PUSH1 0x20 ADD DUP1 DUP4 GT PUSH2 0xC6 JUMPI DUP3 SWAP1 SUB PUSH1 0x1F AND DUP3 ADD SWAP2 JUMPDEST POP POP POP POP POP SWAP1 DUP1 PUSH1 0x1 ADD DUP1 SLOAD PUSH2 0xF8 SWAP1 PUSH2 0x740 JUMP JUMPDEST DUP1 PUSH1 0x1F ADD PUSH1 0x20 DUP1 SWAP2 DIV MUL PUSH1 0x20 ADD PUSH1 0x40 MLOAD SWAP1 DUP2 ADD PUSH1 0x40 MSTORE DUP1 SWAP3 SWAP2 SWAP1 DUP2 DUP2 MSTORE PUSH1 0x20 ADD DUP3 DUP1 SLOAD PUSH2 0x124 SWAP1 PUSH2 0x740 JUMP JUMPDEST DUP1 ISZERO PUSH2 0x171 JUMPI DUP1 PUSH1 0x1F LT PUSH2 0x146 JUMPI PUSH2 0x100 DUP1 DUP4 SLOAD DIV MUL DUP4 MSTORE SWAP2 PUSH1 0x20 ADD SWAP2 PUSH2 0x171 JUMP JUMPDEST DUP3 ADD SWAP2 SWAP1 PUSH1 0x0 MSTORE PUSH1 0x20 PUSH1 0x0 KECCAK256 SWAP1 JUMPDEST DUP2 SLOAD DUP2 MSTORE SWAP1 PUSH1 0x1 ADD SWAP1 PUSH1 0x20 ADD DUP1 DUP4 GT PUSH2 0x154 JUMPI DUP3 SWAP1 SUB PUSH1 0x1F AND DUP3 ADD SWAP2 JUMPDEST POP POP POP POP POP SWAP1 DUP1 PUSH1 0x2 ADD DUP1 SLOAD PUSH2 0x186 SWAP1 PUSH2 0x740 JUMP JUMPDEST DUP1 PUSH1 0x1F ADD PUSH1 0x20 DUP1 SWAP2 DIV MUL PUSH1 0x20 ADD PUSH1 0x40 MLOAD SWAP1 DUP2 ADD PUSH1 0x40 MSTORE DUP1 SWAP3 SWAP2 SWAP1 DUP2 DUP2 MSTORE PUSH1 0x20 ADD DUP3 DUP1 SLOAD PUSH2 0x1B2 SWAP1 PUSH2 0x740 JUMP JUMPDEST DUP1 ISZERO PUSH2 0x1FF JUMPI DUP1 PUSH1 0x1F LT PUSH2 0x1D4 JUMPI PUSH2 0x100 DUP1 DUP4 SLOAD DIV MUL DUP4 MSTORE SWAP2 PUSH1 0x20 ADD SWAP2 PUSH2 0x1FF JUMP JUMPDEST DUP3 ADD SWAP2 SWAP1 PUSH1 0x0 MSTORE PUSH1 0x20 PUSH1 0x0 KECCAK256 SWAP1 JUMPDEST DUP2 SLOAD DUP2 MSTORE SWAP1 PUSH1 0x1 ADD SWAP1 PUSH1 0x20 ADD DUP1 DUP4 GT PUSH2 0x1E2 JUMPI DUP3 SWAP1 SUB PUSH1 0x1F AND DUP3 ADD SWAP2 JUMPDEST POP POP POP POP POP SWAP1 DUP1 PUSH1 0x3 ADD DUP1 SLOAD PUSH2 0x214 SWAP1 PUSH2 0x740 JUMP JUMPDEST DUP1 PUSH1 0x1F ADD PUSH1 0x20 DUP1 SWAP2 DIV MUL PUSH1 0x20 ADD PUSH1 0x40 MLOAD SWAP1 DUP2 ADD PUSH1 0x40 MSTORE DUP1 SWAP3 SWAP2 SWAP1 DUP2 DUP2 MSTORE PUSH1 0x20 ADD DUP3 DUP1 SLOAD PUSH2 0x240 SWAP1 PUSH2 0x740 JUMP JUMPDEST DUP1 ISZERO PUSH2 0x28D JUMPI DUP1 PUSH1 0x1F LT PUSH2 0x262 JUMPI PUSH2 0x100 DUP1 DUP4 SLOAD DIV MUL DUP4 MSTORE SWAP2 PUSH1 0x20 ADD SWAP2 PUSH2 0x28D JUMP JUMPDEST DUP3 ADD SWAP2 SWAP1 PUSH1 0x0 MSTORE PUSH1 0x20 PUSH1 0x0 KECCAK256 SWAP1 JUMPDEST DUP2 SLOAD DUP2 MSTORE SWAP1 PUSH1 0x1 ADD SWAP1 PUSH1 0x20 ADD DUP1 DUP4 GT PUSH2 0x270 JUMPI DUP3 SWAP1 SUB PUSH1 0x1F AND DUP3 ADD SWAP2 JUMPDEST POP POP POP POP POP SWAP1 DUP1 PUSH1 0x4 ADD DUP1 SLOAD PUSH2 0x2A2 SWAP1 PUSH2 0x740 JUMP JUMPDEST DUP1 PUSH1 0x1F ADD PUSH1 0x20 DUP1 SWAP2 DIV MUL PUSH1 0x20 ADD PUSH1 0x40 MLOAD SWAP1 DUP2 ADD PUSH1 0x40 MSTORE DUP1 SWAP3 SWAP2 SWAP1 DUP2 DUP2 MSTORE PUSH1 0x20 ADD DUP3 DUP1 SLOAD PUSH2 0x2CE SWAP1 PUSH2 0x740 JUMP JUMPDEST DUP1 ISZERO PUSH2 0x31B JUMPI DUP1 PUSH1 0x1F LT PUSH2 0x2F0 JUMPI PUSH2 0x100 DUP1 DUP4 SLOAD DIV MUL DUP4 MSTORE SWAP2 PUSH1 0x20 ADD SWAP2 PUSH2 0x31B JUMP JUMPDEST DUP3 ADD SWAP2 SWAP1 PUSH1 0x0 MSTORE PUSH1 0x20 PUSH1 0x0 KECCAK256 SWAP1 JUMPDEST DUP2 SLOAD DUP2 MSTORE SWAP1 PUSH1 0x1 ADD SWAP1 PUSH1 0x20 ADD DUP1 DUP4 GT PUSH2 0x2FE JUMPI DUP3 SWAP1 SUB PUSH1 0x1F AND DUP3 ADD SWAP2 JUMPDEST POP POP POP POP POP SWAP1 DUP1 PUSH1 0x5 ADD DUP1 SLOAD PUSH2 0x330 SWAP1 PUSH2 0x740 JUMP JUMPDEST DUP1 PUSH1 0x1F ADD PUSH1 0x20 DUP1 SWAP2 DIV MUL PUSH1 0x20 ADD PUSH1 0x40 MLOAD SWAP1 DUP2 ADD PUSH1 0x40 MSTORE DUP1 SWAP3 SWAP2 SWAP1 DUP2 DUP2 MSTORE PUSH1 0x20 ADD DUP3 DUP1 SLOAD PUSH2 0x35C SWAP1 PUSH2 0x740 JUMP JUMPDEST DUP1 ISZERO PUSH2 0x3A9 JUMPI DUP1 PUSH1 0x1F LT PUSH2 0x37E JUMPI PUSH2 0x100 DUP1 DUP4 SLOAD DIV MUL DUP4 MSTORE SWAP2 PUSH1 0x20 ADD SWAP2 PUSH2 0x3A9 JUMP JUMPDEST DUP3 ADD SWAP2 SWAP1 PUSH1 0x0 MSTORE PUSH1 0x20 PUSH1 0x0 KECCAK256 SWAP1 JUMPDEST DUP2 SLOAD DUP2 MSTORE SWAP1 PUSH1 0x1 ADD SWAP1 PUSH1 0x20 ADD DUP1 DUP4 GT PUSH2 0x38C JUMPI DUP3 SWAP1 SUB PUSH1 0x1F AND DUP3 ADD SWAP2 JUMPDEST POP POP POP POP POP SWAP1 DUP1 PUSH1 0x6 ADD DUP1 SLOAD PUSH2 0x3BE SWAP1 PUSH2 0x740 JUMP JUMPDEST DUP1 PUSH1 0x1F ADD PUSH1 0x20 DUP1 SWAP2 DIV MUL PUSH1 0x20 ADD PUSH1 0x40 MLOAD SWAP1 DUP2 ADD PUSH1 0x40 MSTORE DUP1 SWAP3 SWAP2 SWAP1 DUP2 DUP2 MSTORE PUSH1 0x20 ADD DUP3 DUP1 SLOAD PUSH2 0x3EA SWAP1 PUSH2 0x740 JUMP JUMPDEST DUP1 ISZERO PUSH2 0x437 JUMPI DUP1 PUSH1 0x1F LT PUSH2 0x40C JUMPI PUSH2 0x100 DUP1 DUP4 SLOAD DIV MUL DUP4 MSTORE SWAP2 PUSH1 0x20 ADD SWAP2 PUSH2 0x437 JUMP JUMPDEST DUP3 ADD SWAP2 SWAP1 PUSH1 0x0 MSTORE PUSH1 0x20 PUSH1 0x0 KECCAK256 SWAP1 JUMPDEST DUP2 SLOAD DUP2 MSTORE SWAP1 PUSH1 0x1 ADD SWAP1 PUSH1 0x20 ADD DUP1 DUP4 GT PUSH2 0x41A JUMPI DUP3 SWAP1 SUB PUSH1 0x1F AND DUP3 ADD SWAP2 JUMPDEST POP POP POP POP POP SWAP1 DUP1 PUSH1 0x7 ADD DUP1 SLOAD PUSH2 0x44C SWAP1 PUSH2 0x740 JUMP JUMPDEST DUP1 PUSH1 0x1F ADD PUSH1 0x20 DUP1 SWAP2 DIV MUL PUSH1 0x20 ADD PUSH1 0x40 MLOAD SWAP1 DUP2 ADD PUSH1 0x40 MSTORE DUP1 SWAP3 SWAP2 SWAP1 DUP2 DUP2 MSTORE PUSH1 0x20 ADD DUP3 DUP1 SLOAD PUSH2 0x478 SWAP1 PUSH2 0x740 JUMP JUMPDEST DUP1 ISZERO PUSH2 0x4C5 JUMPI DUP1 PUSH1 0x1F LT PUSH2 0x49A JUMPI PUSH2 0x100 DUP1 DUP4 SLOAD DIV MUL DUP4 MSTORE SWAP2 PUSH1 0x20 ADD SWAP2 PUSH2 0x4C5 JUMP JUMPDEST DUP3 ADD SWAP2 SWAP1 PUSH1 0x0 MSTORE PUSH1 0x20 PUSH1 0x0 KECCAK256 SWAP1 JUMPDEST DUP2 SLOAD DUP2 MSTORE SWAP1 PUSH1 0x1 ADD SWAP1 PUSH1 0x20 ADD DUP1 DUP4 GT PUSH2 0x4A8 JUMPI DUP3 SWAP1 SUB PUSH1 0x1F AND DUP3 ADD SWAP2 JUMPDEST POP POP POP POP POP SWAP1 DUP1 PUSH1 0x8 ADD DUP1 SLOAD PUSH2 0x4DA SWAP1 PUSH2 0x740 JUMP JUMPDEST DUP1 PUSH1 0x1F ADD PUSH1 0x20 DUP1 SWAP2 DIV MUL PUSH1 0x20 ADD PUSH1 0x40 MLOAD SWAP1 DUP2 ADD PUSH1 0x40 MSTORE DUP1 SWAP3 SWAP2 SWAP1 DUP2 DUP2 MSTORE PUSH1 0x20 ADD DUP3 DUP1 SLOAD PUSH2 0x506 SWAP1 PUSH2 0x740 JUMP JUMPDEST DUP1 ISZERO PUSH2 0x553 JUMPI DUP1 PUSH1 0x1F LT PUSH2 0x528 JUMPI PUSH2 0x100 DUP1 DUP4 SLOAD DIV MUL DUP4 MSTORE SWAP2 PUSH1 0x20 ADD SWAP2 PUSH2 0x553 JUMP JUMPDEST DUP3 ADD SWAP2 SWAP1 PUSH1 0x0 MSTORE PUSH1 0x20 PUSH1 0x0 KECCAK256 SWAP1 JUMPDEST DUP2 SLOAD DUP2 MSTORE SWAP1 PUSH1 0x1 ADD SWAP1 PUSH1 0x20 ADD DUP1 DUP4 GT PUSH2 0x536 JUMPI DUP3 SWAP1 SUB PUSH1 0x1F AND DUP3 ADD SWAP2 JUMPDEST POP POP POP POP POP SWAP1 DUP1 PUSH1 0x9 ADD SLOAD SWAP1 DUP1 PUSH1 0xA ADD SLOAD SWAP1 DUP1 PUSH1 0xB ADD SLOAD SWAP1 POP DUP13 JUMP JUMPDEST PUSH1 0x0 DUP2 MLOAD SWAP1 POP SWAP2 SWAP1 POP JUMP JUMPDEST PUSH1 0x0 DUP3 DUP3 MSTORE PUSH1 0x20 DUP3 ADD SWAP1 POP SWAP3 SWAP2 POP POP JUMP JUMPDEST PUSH1 0x0 JUMPDEST DUP4 DUP2 LT ISZERO PUSH2 0x5A9 JUMPI DUP1 DUP3 ADD MLOAD DUP2 DUP5 ADD MSTORE PUSH1 0x20 DUP2 ADD SWAP1 POP PUSH2 0x58E JUMP JUMPDEST PUSH1 0x0 DUP5 DUP5 ADD MSTORE POP POP POP POP JUMP JUMPDEST PUSH1 0x0 PUSH1 0x1F NOT PUSH1 0x1F DUP4 ADD AND SWAP1 POP SWAP2 SWAP1 POP JUMP JUMPDEST PUSH1 0x0 PUSH2 0x5D1 DUP3 PUSH2 0x56F JUMP JUMPDEST PUSH2 0x5DB DUP2 DUP6 PUSH2 0x57A JUMP JUMPDEST SWAP4 POP PUSH2 0x5EB DUP2 DUP6 PUSH1 0x20 DUP7 ADD PUSH2 0x58B JUMP JUMPDEST PUSH2 0x5F4 DUP2 PUSH2 0x5B5 JUMP JUMPDEST DUP5 ADD SWAP2 POP POP SWAP3 SWAP2 POP POP JUMP JUMPDEST PUSH1 0x0 DUP2 SWAP1 POP SWAP2 SWAP1 POP JUMP JUMPDEST PUSH2 0x612 DUP2 PUSH2 0x5FF JUMP JUMPDEST DUP3 MSTORE POP POP JUMP JUMPDEST PUSH1 0x0 PUSH2 0x180 DUP3 ADD SWAP1 POP DUP2 DUP2 SUB PUSH1 0x0 DUP4 ADD MSTORE PUSH2 0x633 DUP2 DUP16 PUSH2 0x5C6 JUMP JUMPDEST SWAP1 POP DUP2 DUP2 SUB PUSH1 0x20 DUP4 ADD MSTORE PUSH2 0x647 DUP2 DUP15 PUSH2 0x5C6 JUMP JUMPDEST SWAP1 POP DUP2 DUP2 SUB PUSH1 0x40 DUP4 ADD MSTORE PUSH2 0x65B DUP2 DUP14 PUSH2 0x5C6 JUMP JUMPDEST SWAP1 POP DUP2 DUP2 SUB PUSH1 0x60 DUP4 ADD MSTORE PUSH2 0x66F DUP2 DUP13 PUSH2 0x5C6 JUMP JUMPDEST SWAP1 POP DUP2 DUP2 SUB PUSH1 0x80 DUP4 ADD MSTORE PUSH2 0x683 DUP2 DUP12 PUSH2 0x5C6 JUMP JUMPDEST SWAP1 POP DUP2 DUP2 SUB PUSH1 0xA0 DUP4 ADD MSTORE PUSH2 0x697 DUP2 DUP11 PUSH2 0x5C6 JUMP JUMPDEST SWAP1 POP DUP2 DUP2 SUB PUSH1 0xC0 DUP4 ADD MSTORE PUSH2 0x6AB DUP2 DUP10 PUSH2 0x5C6 JUMP JUMPDEST SWAP1 POP DUP2 DUP2 SUB PUSH1 0xE0 DUP4 ADD MSTORE PUSH2 0x6BF DUP2 DUP9 PUSH2 0x5C6 JUMP JUMPDEST SWAP1 POP DUP2 DUP2 SUB PUSH2 0x100 DUP4 ADD MSTORE PUSH2 0x6D4 DUP2 DUP8 PUSH2 0x5C6 JUMP JUMPDEST SWAP1 POP PUSH2 0x6E4 PUSH2 0x120 DUP4 ADD DUP7 PUSH2 0x609 JUMP JUMPDEST PUSH2 0x6F2 PUSH2 0x140 DUP4 ADD DUP6 PUSH2 0x609 JUMP JUMPDEST PUSH2 0x700 PUSH2 0x160 DUP4 ADD DUP5 PUSH2 0x609 JUMP JUMPDEST SWAP14 SWAP13 POP POP POP POP POP POP POP POP POP POP POP POP POP JUMP JUMPDEST PUSH32 0x4E487B7100000000000000000000000000000000000000000000000000000000 PUSH1 0x0 MSTORE PUSH1 0x22 PUSH1 0x4 MSTORE PUSH1 0x24 PUSH1 0x0 REVERT JUMPDEST PUSH1 0x0 PUSH1 0x2 DUP3 DIV SWAP1 POP PUSH1 0x1 DUP3 AND DUP1 PUSH2 0x758 JUMPI PUSH1 0x7F DUP3 AND SWAP2 POP JUMPDEST PUSH1 0x20 DUP3 LT DUP2 SUB PUSH2 0x76B JUMPI PUSH2 0x76A PUSH2 0x711 JUMP JUMPDEST JUMPDEST POP SWAP2 SWAP1 POP JUMP INVALID LOG2 PUSH5 0x6970667358 0x22 SLT KECCAK256 SUB SUB CALLER 0xC CALLDATALOAD PUSH19 0xF69058AB12776A85D141260632F979353287CD DELEGATECALL 0x2A CALLDATACOPY PUSH7 0x4B99D364736F6C PUSH4 0x43000813 STOP CALLER "},"methodIdentifiers":{"certificate()":"2dbf7b98"}}}}}