{
  "_format": "hh-sol-artifact-1",
  "contractName": "UniblokContract",
  "sourceName": "contracts/CreateContracts.sol",
  "abi": [
    {
      "inputs": [
        {
          "internalType": "string[]",
          "name": "_partyDetails",
          "type": "string[]"
        },
        {
          "internalType": "uint256[]",
          "name": "_contractOverview",
          "type": "uint256[]"
        },
        {
          "internalType": "uint256[]",
          "name": "_serviceChargeDetails",
          "type": "uint256[]"
        },
        {
          "internalType": "string[]",
          "name": "_typeAndDuration",
          "type": "string[]"
        }
      ],
      "stateMutability": "nonpayable",
      "type": "constructor"
    },
    {
      "inputs": [],
      "name": "ContractOverview",
      "outputs": [
        {
          "internalType": "uint256",
          "name": "estimatedBudget",
          "type": "uint256"
        },
        {
          "internalType": "uint256",
          "name": "estimatedHours",
          "type": "uint256"
        },
        {
          "internalType": "uint256",
          "name": "estimatedWeek",
          "type": "uint256"
        },
        {
          "internalType": "uint256",
          "name": "estimatedTeamSize",
          "type": "uint256"
        },
        {
          "internalType": "uint256",
          "name": "netSettlement",
          "type": "uint256"
        }
      ],
      "stateMutability": "view",
      "type": "function"
    },
    {
      "inputs": [],
      "name": "ServiceChargeDetails",
      "outputs": [
        {
          "internalType": "uint256",
          "name": "uniblokServiceFee",
          "type": "uint256"
        },
        {
          "internalType": "uint256",
          "name": "expectedAmountToBeReceived",
          "type": "uint256"
        },
        {
          "internalType": "uint256",
          "name": "finalAmount",
          "type": "uint256"
        }
      ],
      "stateMutability": "view",
      "type": "function"
    },
    {
      "inputs": [],
      "name": "TypeAndDuration",
      "outputs": [
        {
          "internalType": "string",
          "name": "jobCategory",
          "type": "string"
        },
        {
          "internalType": "string",
          "name": "OfferDate",
          "type": "string"
        },
        {
          "internalType": "string",
          "name": "offerExpires",
          "type": "string"
        },
        {
          "internalType": "string",
          "name": "expectedCompletionOn",
          "type": "string"
        },
        {
          "internalType": "string",
          "name": "jobId",
          "type": "string"
        },
        {
          "internalType": "string",
          "name": "acceptanceTime",
          "type": "string"
        },
        {
          "internalType": "string",
          "name": "acceptanceDate",
          "type": "string"
        }
      ],
      "stateMutability": "view",
      "type": "function"
    },
    {
      "inputs": [],
      "name": "partyDetail",
      "outputs": [
        {
          "internalType": "string",
          "name": "jobTitle",
          "type": "string"
        },
        {
          "internalType": "string",
          "name": "clientName",
          "type": "string"
        },
        {
          "internalType": "string",
          "name": "serviceProvider",
          "type": "string"
        }
      ],
      "stateMutability": "view",
      "type": "function"
    }
  ],
  "bytecode": "0x60806040523480156200001157600080fd5b5060405162001595380380620015958339818101604052810190620000379190620007e0565b604051806060016040528085600081518110620000595762000058620008ce565b5b60200260200101518152602001856001815181106200007d576200007c620008ce565b5b6020026020010151815260200185600281518110620000a157620000a0620008ce565b5b6020026020010151815250600080820151816000019081620000c4919062000b3e565b506020820151816001019081620000dc919062000b3e565b506040820151816002019081620000f4919062000b3e565b509050506040518060a00160405280846000815181106200011a5762000119620008ce565b5b60200260200101518152602001846001815181106200013e576200013d620008ce565b5b6020026020010151815260200184600281518110620001625762000161620008ce565b5b6020026020010151815260200184600381518110620001865762000185620008ce565b5b6020026020010151815260200184600481518110620001aa57620001a9620008ce565b5b6020026020010151815250600360008201518160000155602082015181600101556040820151816002015560608201518160030155608082015181600401559050506040518060600160405280836000815181106200020e576200020d620008ce565b5b6020026020010151815260200183600181518110620002325762000231620008ce565b5b6020026020010151815260200183600281518110620002565762000255620008ce565b5b602002602001015181525060086000820151816000015560208201518160010155604082015181600201559050506040518060e0016040528082600081518110620002a657620002a5620008ce565b5b6020026020010151815260200182600181518110620002ca57620002c9620008ce565b5b6020026020010151815260200182600281518110620002ee57620002ed620008ce565b5b6020026020010151815260200182600381518110620003125762000311620008ce565b5b6020026020010151815260200182600481518110620003365762000335620008ce565b5b60200260200101518152602001826005815181106200035a5762000359620008ce565b5b60200260200101518152602001826006815181106200037e576200037d620008ce565b5b6020026020010151815250600b6000820151816000019081620003a2919062000b3e565b506020820151816001019081620003ba919062000b3e565b506040820151816002019081620003d2919062000b3e565b506060820151816003019081620003ea919062000b3e565b50608082015181600401908162000402919062000b3e565b5060a08201518160050190816200041a919062000b3e565b5060c082015181600601908162000432919062000b3e565b509050505050505062000c25565b6000604051905090565b600080fd5b600080fd5b600080fd5b6000601f19601f8301169050919050565b7f4e487b7100000000000000000000000000000000000000000000000000000000600052604160045260246000fd5b620004a48262000459565b810181811067ffffffffffffffff82111715620004c657620004c56200046a565b5b80604052505050565b6000620004db62000440565b9050620004e9828262000499565b919050565b600067ffffffffffffffff8211156200050c576200050b6200046a565b5b602082029050602081019050919050565b600080fd5b600080fd5b600067ffffffffffffffff8211156200054557620005446200046a565b5b620005508262000459565b9050602081019050919050565b60005b838110156200057d57808201518184015260208101905062000560565b60008484015250505050565b6000620005a06200059a8462000527565b620004cf565b905082815260208101848484011115620005bf57620005be62000522565b5b620005cc8482856200055d565b509392505050565b600082601f830112620005ec57620005eb62000454565b5b8151620005fe84826020860162000589565b91505092915050565b60006200061e6200061884620004ee565b620004cf565b905080838252602082019050602084028301858111156200064457620006436200051d565b5b835b818110156200069257805167ffffffffffffffff8111156200066d576200066c62000454565b5b8086016200067c8982620005d4565b8552602085019450505060208101905062000646565b5050509392505050565b600082601f830112620006b457620006b362000454565b5b8151620006c684826020860162000607565b91505092915050565b600067ffffffffffffffff821115620006ed57620006ec6200046a565b5b602082029050602081019050919050565b6000819050919050565b6200071381620006fe565b81146200071f57600080fd5b50565b600081519050620007338162000708565b92915050565b6000620007506200074a84620006cf565b620004cf565b905080838252602082019050602084028301858111156200077657620007756200051d565b5b835b81811015620007a357806200078e888262000722565b84526020840193505060208101905062000778565b5050509392505050565b600082601f830112620007c557620007c462000454565b5b8151620007d784826020860162000739565b91505092915050565b60008060008060808587031215620007fd57620007fc6200044a565b5b600085015167ffffffffffffffff8111156200081e576200081d6200044f565b5b6200082c878288016200069c565b945050602085015167ffffffffffffffff81111562000850576200084f6200044f565b5b6200085e87828801620007ad565b935050604085015167ffffffffffffffff8111156200088257620008816200044f565b5b6200089087828801620007ad565b925050606085015167ffffffffffffffff811115620008b457620008b36200044f565b5b620008c2878288016200069c565b91505092959194509250565b7f4e487b7100000000000000000000000000000000000000000000000000000000600052603260045260246000fd5b600081519050919050565b7f4e487b7100000000000000000000000000000000000000000000000000000000600052602260045260246000fd5b600060028204905060018216806200095057607f821691505b60208210810362000966576200096562000908565b5b50919050565b60008190508160005260206000209050919050565b60006020601f8301049050919050565b600082821b905092915050565b600060088302620009d07fffffffffffffffffffffffffffffffffffffffffffffffffffffffffffffffff8262000991565b620009dc868362000991565b95508019841693508086168417925050509392505050565b6000819050919050565b600062000a1f62000a1962000a1384620006fe565b620009f4565b620006fe565b9050919050565b6000819050919050565b62000a3b83620009fe565b62000a5362000a4a8262000a26565b8484546200099e565b825550505050565b600090565b62000a6a62000a5b565b62000a7781848462000a30565b505050565b5b8181101562000a9f5762000a9360008262000a60565b60018101905062000a7d565b5050565b601f82111562000aee5762000ab8816200096c565b62000ac38462000981565b8101602085101562000ad3578190505b62000aeb62000ae28562000981565b83018262000a7c565b50505b505050565b600082821c905092915050565b600062000b136000198460080262000af3565b1980831691505092915050565b600062000b2e838362000b00565b9150826002028217905092915050565b62000b4982620008fd565b67ffffffffffffffff81111562000b655762000b646200046a565b5b62000b71825462000937565b62000b7e82828562000aa3565b600060209050601f83116001811462000bb6576000841562000ba1578287015190505b62000bad858262000b20565b86555062000c1d565b601f19841662000bc6866200096c565b60005b8281101562000bf05784890151825560018201915060208501945060208101905062000bc9565b8683101562000c10578489015162000c0c601f89168262000b00565b8355505b6001600288020188555050505b505050505050565b6109608062000c356000396000f3fe608060405234801561001057600080fd5b506004361061004c5760003560e01c8063376a646a1461005157806352d585ed14610073578063d2ac368714610093578063ef4d4e2b146100b7575b600080fd5b6100596100d7565b60405161006a9594939291906106c4565b60405180910390f35b61007b6100fb565b60405161008a93929190610717565b60405180910390f35b61009b610113565b6040516100ae97969594939291906107de565b60405180910390f35b6100bf6104fb565b6040516100ce9392919061087e565b60405180910390f35b60038060000154908060010154908060020154908060030154908060040154905085565b60088060000154908060010154908060020154905083565b600b806000018054610124906108f9565b80601f0160208091040260200160405190810160405280929190818152602001828054610150906108f9565b801561019d5780601f106101725761010080835404028352916020019161019d565b820191906000526020600020905b81548152906001019060200180831161018057829003601f168201915b5050505050908060010180546101b2906108f9565b80601f01602080910402602001604051908101604052809291908181526020018280546101de906108f9565b801561022b5780601f106102005761010080835404028352916020019161022b565b820191906000526020600020905b81548152906001019060200180831161020e57829003601f168201915b505050505090806002018054610240906108f9565b80601f016020809104026020016040519081016040528092919081815260200182805461026c906108f9565b80156102b95780601f1061028e576101008083540402835291602001916102b9565b820191906000526020600020905b81548152906001019060200180831161029c57829003601f168201915b5050505050908060030180546102ce906108f9565b80601f01602080910402602001604051908101604052809291908181526020018280546102fa906108f9565b80156103475780601f1061031c57610100808354040283529160200191610347565b820191906000526020600020905b81548152906001019060200180831161032a57829003601f168201915b50505050509080600401805461035c906108f9565b80601f0160208091040260200160405190810160405280929190818152602001828054610388906108f9565b80156103d55780601f106103aa576101008083540402835291602001916103d5565b820191906000526020600020905b8154815290600101906020018083116103b857829003601f168201915b5050505050908060050180546103ea906108f9565b80601f0160208091040260200160405190810160405280929190818152602001828054610416906108f9565b80156104635780601f1061043857610100808354040283529160200191610463565b820191906000526020600020905b81548152906001019060200180831161044657829003601f168201915b505050505090806006018054610478906108f9565b80601f01602080910402602001604051908101604052809291908181526020018280546104a4906108f9565b80156104f15780601f106104c6576101008083540402835291602001916104f1565b820191906000526020600020905b8154815290600101906020018083116104d457829003601f168201915b5050505050905087565b600080600001805461050c906108f9565b80601f0160208091040260200160405190810160405280929190818152602001828054610538906108f9565b80156105855780601f1061055a57610100808354040283529160200191610585565b820191906000526020600020905b81548152906001019060200180831161056857829003601f168201915b50505050509080600101805461059a906108f9565b80601f01602080910402602001604051908101604052809291908181526020018280546105c6906108f9565b80156106135780601f106105e857610100808354040283529160200191610613565b820191906000526020600020905b8154815290600101906020018083116105f657829003601f168201915b505050505090806002018054610628906108f9565b80601f0160208091040260200160405190810160405280929190818152602001828054610654906108f9565b80156106a15780601f10610676576101008083540402835291602001916106a1565b820191906000526020600020905b81548152906001019060200180831161068457829003601f168201915b5050505050905083565b6000819050919050565b6106be816106ab565b82525050565b600060a0820190506106d960008301886106b5565b6106e660208301876106b5565b6106f360408301866106b5565b61070060608301856106b5565b61070d60808301846106b5565b9695505050505050565b600060608201905061072c60008301866106b5565b61073960208301856106b5565b61074660408301846106b5565b949350505050565b600081519050919050565b600082825260208201905092915050565b60005b8381101561078857808201518184015260208101905061076d565b60008484015250505050565b6000601f19601f8301169050919050565b60006107b08261074e565b6107ba8185610759565b93506107ca81856020860161076a565b6107d381610794565b840191505092915050565b600060e08201905081810360008301526107f8818a6107a5565b9050818103602083015261080c81896107a5565b9050818103604083015261082081886107a5565b9050818103606083015261083481876107a5565b9050818103608083015261084881866107a5565b905081810360a083015261085c81856107a5565b905081810360c083015261087081846107a5565b905098975050505050505050565b6000606082019050818103600083015261089881866107a5565b905081810360208301526108ac81856107a5565b905081810360408301526108c081846107a5565b9050949350505050565b7f4e487b7100000000000000000000000000000000000000000000000000000000600052602260045260246000fd5b6000600282049050600182168061091157607f821691505b602082108103610924576109236108ca565b5b5091905056fea264697066735822122065a6fe55d530241039e10532a03a06f7616a1df397bc599ae3798129d39e9fab64736f6c63430008130033",
  "linkReferences": {},
  "deployedLinkReferences": {}
}