{
  "_format": "hh-sol-artifact-1",
  "contractName": "UniblokContract",
  "sourceName": "contracts/UniblokContract.sol",
  "abi": [
    {
      "inputs": [
        {
          "internalType": "string[]",
          "name": "_partyDetails",
          "type": "string[]"
        },
        {
          "internalType": "uint256[]",
          "name": "_contractOverview",
          "type": "uint256[]"
        },
        {
          "internalType": "uint256[]",
          "name": "_serviceChargeDetails",
          "type": "uint256[]"
        },
        {
          "internalType": "string[]",
          "name": "_typeAndDuration",
          "type": "string[]"
        }
      ],
      "stateMutability": "nonpayable",
      "type": "constructor"
    },
    {
      "inputs": [],
      "name": "ContractOverview",
      "outputs": [
        {
          "internalType": "uint256",
          "name": "estimatedBudget",
          "type": "uint256"
        },
        {
          "internalType": "uint256",
          "name": "estimatedHours",
          "type": "uint256"
        },
        {
          "internalType": "uint256",
          "name": "estimatedWeek",
          "type": "uint256"
        },
        {
          "internalType": "uint256",
          "name": "estimatedTeamSize",
          "type": "uint256"
        },
        {
          "internalType": "uint256",
          "name": "netSettlement",
          "type": "uint256"
        }
      ],
      "stateMutability": "view",
      "type": "function"
    },
    {
      "inputs": [],
      "name": "ServiceChargeDetails",
      "outputs": [
        {
          "internalType": "uint256",
          "name": "uniblokServiceFee",
          "type": "uint256"
        },
        {
          "internalType": "uint256",
          "name": "expectedAmountToBeReceived",
          "type": "uint256"
        },
        {
          "internalType": "uint256",
          "name": "finalAmount",
          "type": "uint256"
        }
      ],
      "stateMutability": "view",
      "type": "function"
    },
    {
      "inputs": [],
      "name": "TypeAndDuration",
      "outputs": [
        {
          "internalType": "string",
          "name": "jobCategory",
          "type": "string"
        },
        {
          "internalType": "string",
          "name": "OfferDate",
          "type": "string"
        },
        {
          "internalType": "string",
          "name": "offerExpires",
          "type": "string"
        },
        {
          "internalType": "string",
          "name": "expectedCompletionOn",
          "type": "string"
        },
        {
          "internalType": "string",
          "name": "jobId",
          "type": "string"
        },
        {
          "internalType": "string",
          "name": "acceptanceTime",
          "type": "string"
        },
        {
          "internalType": "string",
          "name": "acceptanceDate",
          "type": "string"
        }
      ],
      "stateMutability": "view",
      "type": "function"
    },
    {
      "inputs": [],
      "name": "partyDetail",
      "outputs": [
        {
          "internalType": "string",
          "name": "jobTitle",
          "type": "string"
        },
        {
          "internalType": "string",
          "name": "clientName",
          "type": "string"
        },
        {
          "internalType": "string",
          "name": "serviceProvider",
          "type": "string"
        }
      ],
      "stateMutability": "view",
      "type": "function"
    }
  ],
  "bytecode": "0x60806040523480156200001157600080fd5b50604051620013ea380380620013ea833981810160405281019062000037919062000748565b604051806060016040528085600081518110620000595762000058620009ce565b5b60200260200101518152602001856001815181106200007d576200007c620009ce565b5b6020026020010151815260200185600281518110620000a157620000a0620009ce565b5b6020026020010151815250600080820151816000019080519060200190620000cb92919062000486565b506020820151816001019080519060200190620000ea92919062000486565b5060408201518160020190805190602001906200010992919062000486565b509050506040518060a00160405280846000815181106200012f576200012e620009ce565b5b6020026020010151815260200184600181518110620001535762000152620009ce565b5b6020026020010151815260200184600281518110620001775762000176620009ce565b5b60200260200101518152602001846003815181106200019b576200019a620009ce565b5b6020026020010151815260200184600481518110620001bf57620001be620009ce565b5b602002602001015181525060036000820151816000015560208201518160010155604082015181600201556060820151816003015560808201518160040155905050604051806060016040528083600081518110620002235762000222620009ce565b5b6020026020010151815260200183600181518110620002475762000246620009ce565b5b60200260200101518152602001836002815181106200026b576200026a620009ce565b5b602002602001015181525060086000820151816000015560208201518160010155604082015181600201559050506040518060e0016040528082600081518110620002bb57620002ba620009ce565b5b6020026020010151815260200182600181518110620002df57620002de620009ce565b5b6020026020010151815260200182600281518110620003035762000302620009ce565b5b6020026020010151815260200182600381518110620003275762000326620009ce565b5b60200260200101518152602001826004815181106200034b576200034a620009ce565b5b60200260200101518152602001826005815181106200036f576200036e620009ce565b5b6020026020010151815260200182600681518110620003935762000392620009ce565b5b6020026020010151815250600b6000820151816000019080519060200190620003be92919062000486565b506020820151816001019080519060200190620003dd92919062000486565b506040820151816002019080519060200190620003fc92919062000486565b5060608201518160030190805190602001906200041b92919062000486565b5060808201518160040190805190602001906200043a92919062000486565b5060a08201518160050190805190602001906200045992919062000486565b5060c08201518160060190805190602001906200047892919062000486565b509050505050505062000a70565b828054620004949062000933565b90600052602060002090601f016020900481019282620004b8576000855562000504565b82601f10620004d357805160ff191683800117855562000504565b8280016001018555821562000504579182015b8281111562000503578251825591602001919060010190620004e6565b5b50905062000513919062000517565b5090565b5b808211156200053257600081600090555060010162000518565b5090565b60006200054d62000547846200085f565b62000836565b9050808382526020820190508285602086028201111562000573576200057262000a31565b5b60005b85811015620005c857815167ffffffffffffffff8111156200059d576200059c62000a2c565b5b808601620005ac8982620006fe565b8552602085019450602084019350505060018101905062000576565b5050509392505050565b6000620005e9620005e3846200088e565b62000836565b905080838252602082019050828560208602820111156200060f576200060e62000a31565b5b60005b8581101562000643578162000628888262000731565b84526020840193506020830192505060018101905062000612565b5050509392505050565b6000620006646200065e84620008bd565b62000836565b90508281526020810184848401111562000683576200068262000a36565b5b62000690848285620008fd565b509392505050565b600082601f830112620006b057620006af62000a2c565b5b8151620006c284826020860162000536565b91505092915050565b600082601f830112620006e357620006e262000a2c565b5b8151620006f5848260208601620005d2565b91505092915050565b600082601f83011262000716576200071562000a2c565b5b8151620007288482602086016200064d565b91505092915050565b600081519050620007428162000a56565b92915050565b6000806000806080858703121562000765576200076462000a40565b5b600085015167ffffffffffffffff81111562000786576200078562000a3b565b5b620007948782880162000698565b945050602085015167ffffffffffffffff811115620007b857620007b762000a3b565b5b620007c687828801620006cb565b935050604085015167ffffffffffffffff811115620007ea57620007e962000a3b565b5b620007f887828801620006cb565b925050606085015167ffffffffffffffff8111156200081c576200081b62000a3b565b5b6200082a8782880162000698565b91505092959194509250565b60006200084262000855565b905062000850828262000969565b919050565b6000604051905090565b600067ffffffffffffffff8211156200087d576200087c620009fd565b5b602082029050602081019050919050565b600067ffffffffffffffff821115620008ac57620008ab620009fd565b5b602082029050602081019050919050565b600067ffffffffffffffff821115620008db57620008da620009fd565b5b620008e68262000a45565b9050602081019050919050565b6000819050919050565b60005b838110156200091d57808201518184015260208101905062000900565b838111156200092d576000848401525b50505050565b600060028204905060018216806200094c57607f821691505b602082108114156200096357620009626200099f565b5b50919050565b620009748262000a45565b810181811067ffffffffffffffff82111715620009965762000995620009fd565b5b80604052505050565b7f4e487b7100000000000000000000000000000000000000000000000000000000600052602260045260246000fd5b7f4e487b7100000000000000000000000000000000000000000000000000000000600052603260045260246000fd5b7f4e487b7100000000000000000000000000000000000000000000000000000000600052604160045260246000fd5b600080fd5b600080fd5b600080fd5b600080fd5b600080fd5b6000601f19601f8301169050919050565b62000a6181620008f3565b811462000a6d57600080fd5b50565b61096a8062000a806000396000f3fe608060405234801561001057600080fd5b506004361061004c5760003560e01c8063376a646a1461005157806352d585ed14610073578063d2ac368714610093578063ef4d4e2b146100b7575b600080fd5b6100596100d7565b60405161006a959493929190610816565b60405180910390f35b61007b6100fb565b60405161008a939291906107df565b60405180910390f35b61009b610113565b6040516100ae979695949392919061073f565b60405180910390f35b6100bf6104fb565b6040516100ce939291906106f3565b60405180910390f35b60038060000154908060010154908060020154908060030154908060040154905085565b60088060000154908060010154908060020154905083565b600b806000018054610124906108c2565b80601f0160208091040260200160405190810160405280929190818152602001828054610150906108c2565b801561019d5780601f106101725761010080835404028352916020019161019d565b820191906000526020600020905b81548152906001019060200180831161018057829003601f168201915b5050505050908060010180546101b2906108c2565b80601f01602080910402602001604051908101604052809291908181526020018280546101de906108c2565b801561022b5780601f106102005761010080835404028352916020019161022b565b820191906000526020600020905b81548152906001019060200180831161020e57829003601f168201915b505050505090806002018054610240906108c2565b80601f016020809104026020016040519081016040528092919081815260200182805461026c906108c2565b80156102b95780601f1061028e576101008083540402835291602001916102b9565b820191906000526020600020905b81548152906001019060200180831161029c57829003601f168201915b5050505050908060030180546102ce906108c2565b80601f01602080910402602001604051908101604052809291908181526020018280546102fa906108c2565b80156103475780601f1061031c57610100808354040283529160200191610347565b820191906000526020600020905b81548152906001019060200180831161032a57829003601f168201915b50505050509080600401805461035c906108c2565b80601f0160208091040260200160405190810160405280929190818152602001828054610388906108c2565b80156103d55780601f106103aa576101008083540402835291602001916103d5565b820191906000526020600020905b8154815290600101906020018083116103b857829003601f168201915b5050505050908060050180546103ea906108c2565b80601f0160208091040260200160405190810160405280929190818152602001828054610416906108c2565b80156104635780601f1061043857610100808354040283529160200191610463565b820191906000526020600020905b81548152906001019060200180831161044657829003601f168201915b505050505090806006018054610478906108c2565b80601f01602080910402602001604051908101604052809291908181526020018280546104a4906108c2565b80156104f15780601f106104c6576101008083540402835291602001916104f1565b820191906000526020600020905b8154815290600101906020018083116104d457829003601f168201915b5050505050905087565b600080600001805461050c906108c2565b80601f0160208091040260200160405190810160405280929190818152602001828054610538906108c2565b80156105855780601f1061055a57610100808354040283529160200191610585565b820191906000526020600020905b81548152906001019060200180831161056857829003601f168201915b50505050509080600101805461059a906108c2565b80601f01602080910402602001604051908101604052809291908181526020018280546105c6906108c2565b80156106135780601f106105e857610100808354040283529160200191610613565b820191906000526020600020905b8154815290600101906020018083116105f657829003601f168201915b505050505090806002018054610628906108c2565b80601f0160208091040260200160405190810160405280929190818152602001828054610654906108c2565b80156106a15780601f10610676576101008083540402835291602001916106a1565b820191906000526020600020905b81548152906001019060200180831161068457829003601f168201915b5050505050905083565b60006106b682610869565b6106c08185610874565b93506106d081856020860161088f565b6106d981610923565b840191505092915050565b6106ed81610885565b82525050565b6000606082019050818103600083015261070d81866106ab565b9050818103602083015261072181856106ab565b9050818103604083015261073581846106ab565b9050949350505050565b600060e0820190508181036000830152610759818a6106ab565b9050818103602083015261076d81896106ab565b9050818103604083015261078181886106ab565b9050818103606083015261079581876106ab565b905081810360808301526107a981866106ab565b905081810360a08301526107bd81856106ab565b905081810360c08301526107d181846106ab565b905098975050505050505050565b60006060820190506107f460008301866106e4565b61080160208301856106e4565b61080e60408301846106e4565b949350505050565b600060a08201905061082b60008301886106e4565b61083860208301876106e4565b61084560408301866106e4565b61085260608301856106e4565b61085f60808301846106e4565b9695505050505050565b600081519050919050565b600082825260208201905092915050565b6000819050919050565b60005b838110156108ad578082015181840152602081019050610892565b838111156108bc576000848401525b50505050565b600060028204905060018216806108da57607f821691505b602082108114156108ee576108ed6108f4565b5b50919050565b7f4e487b7100000000000000000000000000000000000000000000000000000000600052602260045260246000fd5b6000601f19601f830116905091905056fea26469706673582212206c8f3e640c79a5e53e167ac1f635f02ecd9605ad5fc6a96907ae05e01297e9c964736f6c63430008070033",
  "linkReferences": {},
  "deployedLinkReferences": {}
}