{
  "_format": "hh-sol-artifact-1",
  "contractName": "GenerateCertificate",
  "sourceName": "contracts/certificate.sol",
  "abi": [
    {
      "inputs": [
        {
          "internalType": "address",
          "name": "_user",
          "type": "address"
        },
        {
          "internalType": "uint256",
          "name": "_Id",
          "type": "uint256"
        }
      ],
      "name": "gEtYourCertificate",
      "outputs": [
        {
          "components": [
            {
              "internalType": "string",
              "name": "userName",
              "type": "string"
            },
            {
              "internalType": "string",
              "name": "certName",
              "type": "string"
            },
            {
              "internalType": "string",
              "name": "CertificationLevel",
              "type": "string"
            },
            {
              "internalType": "string",
              "name": "CreatedBy",
              "type": "string"
            },
            {
              "internalType": "uint256",
              "name": "creationDate",
              "type": "uint256"
            }
          ],
          "internalType": "struct GenerateCertificate.CertificateDetails",
          "name": "",
          "type": "tuple"
        }
      ],
      "stateMutability": "view",
      "type": "function"
    },
    {
      "inputs": [
        {
          "internalType": "string",
          "name": "_userName",
          "type": "string"
        },
        {
          "internalType": "string",
          "name": "certName",
          "type": "string"
        },
        {
          "internalType": "string",
          "name": "_CertificationLevel",
          "type": "string"
        },
        {
          "internalType": "string",
          "name": "_CreatedBy",
          "type": "string"
        }
      ],
      "name": "generateCertificate",
      "outputs": [],
      "stateMutability": "nonpayable",
      "type": "function"
    },
    {
      "inputs": [
        {
          "internalType": "address",
          "name": "_user",
          "type": "address"
        },
        {
          "internalType": "uint256",
          "name": "_uinqueId",
          "type": "uint256"
        }
      ],
      "name": "verification",
      "outputs": [
        {
          "internalType": "bool",
          "name": "",
          "type": "bool"
        }
      ],
      "stateMutability": "view",
      "type": "function"
    }
  ],
  "bytecode": "0x6080604052600060025534801561001557600080fd5b50610d6d806100256000396000f3fe608060405234801561001057600080fd5b50600436106100415760003560e01c8063989d808d14610046578063a1f7d4c714610076578063a95ef4f0146100a6575b600080fd5b610060600480360381019061005b919061071a565b6100c2565b60405161006d9190610884565b60405180910390f35b610090600480360381019061008b919061071a565b61037e565b60405161009d91906108c1565b60405180910390f35b6100c060048036038101906100bb9190610941565b6103e6565b005b6100ca61064d565b6000808473ffffffffffffffffffffffffffffffffffffffff1673ffffffffffffffffffffffffffffffffffffffff16815260200190815260200160002060008381526020019081526020016000206040518060a001604052908160008201805461013490610a59565b80601f016020809104026020016040519081016040528092919081815260200182805461016090610a59565b80156101ad5780601f10610182576101008083540402835291602001916101ad565b820191906000526020600020905b81548152906001019060200180831161019057829003601f168201915b505050505081526020016001820180546101c690610a59565b80601f01602080910402602001604051908101604052809291908181526020018280546101f290610a59565b801561023f5780601f106102145761010080835404028352916020019161023f565b820191906000526020600020905b81548152906001019060200180831161022257829003601f168201915b5050505050815260200160028201805461025890610a59565b80601f016020809104026020016040519081016040528092919081815260200182805461028490610a59565b80156102d15780601f106102a6576101008083540402835291602001916102d1565b820191906000526020600020905b8154815290600101906020018083116102b457829003601f168201915b505050505081526020016003820180546102ea90610a59565b80601f016020809104026020016040519081016040528092919081815260200182805461031690610a59565b80156103635780601f1061033857610100808354040283529160200191610363565b820191906000526020600020905b81548152906001019060200180831161034657829003601f168201915b50505050508152602001600482015481525050905092915050565b6000600160008473ffffffffffffffffffffffffffffffffffffffff1673ffffffffffffffffffffffffffffffffffffffff168152602001908152602001600020600083815260200190815260200160002060009054906101000a900460ff16905092915050565b60006040518060a001604052808a8a8080601f016020809104026020016040519081016040528093929190818152602001838380828437600081840152601f19601f82011690508083019250505050505050815260200188888080601f016020809104026020016040519081016040528093929190818152602001838380828437600081840152601f19601f82011690508083019250505050505050815260200186868080601f016020809104026020016040519081016040528093929190818152602001838380828437600081840152601f19601f82011690508083019250505050505050815260200184848080601f016020809104026020016040519081016040528093929190818152602001838380828437600081840152601f19601f820116905080830192505050505050508152602001428152509050806000803373ffffffffffffffffffffffffffffffffffffffff1673ffffffffffffffffffffffffffffffffffffffff1681526020019081526020016000206000600254815260200190815260200160002060008201518160000190816105889190610c65565b50602082015181600101908161059e9190610c65565b5060408201518160020190816105b49190610c65565b5060608201518160030190816105ca9190610c65565b506080820151816004015590505060018060003373ffffffffffffffffffffffffffffffffffffffff1673ffffffffffffffffffffffffffffffffffffffff1681526020019081526020016000206000600254815260200190815260200160002060006101000a81548160ff021916908315150217905550505050505050505050565b6040518060a0016040528060608152602001606081526020016060815260200160608152602001600081525090565b600080fd5b600080fd5b600073ffffffffffffffffffffffffffffffffffffffff82169050919050565b60006106b182610686565b9050919050565b6106c1816106a6565b81146106cc57600080fd5b50565b6000813590506106de816106b8565b92915050565b6000819050919050565b6106f7816106e4565b811461070257600080fd5b50565b600081359050610714816106ee565b92915050565b600080604083850312156107315761073061067c565b5b600061073f858286016106cf565b925050602061075085828601610705565b9150509250929050565b600081519050919050565b600082825260208201905092915050565b60005b83811015610794578082015181840152602081019050610779565b60008484015250505050565b6000601f19601f8301169050919050565b60006107bc8261075a565b6107c68185610765565b93506107d6818560208601610776565b6107df816107a0565b840191505092915050565b6107f3816106e4565b82525050565b600060a083016000830151848203600086015261081682826107b1565b9150506020830151848203602086015261083082826107b1565b9150506040830151848203604086015261084a82826107b1565b9150506060830151848203606086015261086482826107b1565b915050608083015161087960808601826107ea565b508091505092915050565b6000602082019050818103600083015261089e81846107f9565b905092915050565b60008115159050919050565b6108bb816108a6565b82525050565b60006020820190506108d660008301846108b2565b92915050565b600080fd5b600080fd5b600080fd5b60008083601f840112610901576109006108dc565b5b8235905067ffffffffffffffff81111561091e5761091d6108e1565b5b60208301915083600182028301111561093a576109396108e6565b5b9250929050565b6000806000806000806000806080898b0312156109615761096061067c565b5b600089013567ffffffffffffffff81111561097f5761097e610681565b5b61098b8b828c016108eb565b9850985050602089013567ffffffffffffffff8111156109ae576109ad610681565b5b6109ba8b828c016108eb565b9650965050604089013567ffffffffffffffff8111156109dd576109dc610681565b5b6109e98b828c016108eb565b9450945050606089013567ffffffffffffffff811115610a0c57610a0b610681565b5b610a188b828c016108eb565b92509250509295985092959890939650565b7f4e487b7100000000000000000000000000000000000000000000000000000000600052602260045260246000fd5b60006002820490506001821680610a7157607f821691505b602082108103610a8457610a83610a2a565b5b50919050565b7f4e487b7100000000000000000000000000000000000000000000000000000000600052604160045260246000fd5b60008190508160005260206000209050919050565b60006020601f8301049050919050565b600082821b905092915050565b600060088302610b1b7fffffffffffffffffffffffffffffffffffffffffffffffffffffffffffffffff82610ade565b610b258683610ade565b95508019841693508086168417925050509392505050565b6000819050919050565b6000610b62610b5d610b58846106e4565b610b3d565b6106e4565b9050919050565b6000819050919050565b610b7c83610b47565b610b90610b8882610b69565b848454610aeb565b825550505050565b600090565b610ba5610b98565b610bb0818484610b73565b505050565b5b81811015610bd457610bc9600082610b9d565b600181019050610bb6565b5050565b601f821115610c1957610bea81610ab9565b610bf384610ace565b81016020851015610c02578190505b610c16610c0e85610ace565b830182610bb5565b50505b505050565b600082821c905092915050565b6000610c3c60001984600802610c1e565b1980831691505092915050565b6000610c558383610c2b565b9150826002028217905092915050565b610c6e8261075a565b67ffffffffffffffff811115610c8757610c86610a8a565b5b610c918254610a59565b610c9c828285610bd8565b600060209050601f831160018114610ccf5760008415610cbd578287015190505b610cc78582610c49565b865550610d2f565b601f198416610cdd86610ab9565b60005b82811015610d0557848901518255600182019150602085019450602081019050610ce0565b86831015610d225784890151610d1e601f891682610c2b565b8355505b6001600288020188555050505b50505050505056fea26469706673582212203c6e0fd9b4ce2b7bd364a6e293644fd2265df29e7e7a8c53b5b1b4c7385b9f4d64736f6c63430008130033",
  "linkReferences": {},
  "deployedLinkReferences": {}
}