{
  "_format": "hh-sol-artifact-1",
  "contractName": "GenerateCertificate",
  "sourceName": "contracts/certificate.sol",
  "abi": [
    {
      "inputs": [
        {
          "internalType": "string",
          "name": "_email",
          "type": "string"
        },
        {
          "internalType": "string",
          "name": "_certName",
          "type": "string"
        },
        {
          "internalType": "string",
          "name": "_CertificationLevel",
          "type": "string"
        },
        {
          "internalType": "string[]",
          "name": "_issuerDetails",
          "type": "string[]"
        },
        {
          "internalType": "string",
          "name": "_creationDate",
          "type": "string"
        },
        {
          "internalType": "string",
          "name": "_certId",
          "type": "string"
        },
        {
          "internalType": "uint256",
          "name": "_fees",
          "type": "uint256"
        },
        {
          "internalType": "uint256",
          "name": "_maximumMarks",
          "type": "uint256"
        },
        {
          "internalType": "uint256",
          "name": "_marks",
          "type": "uint256"
        }
      ],
      "stateMutability": "nonpayable",
      "type": "constructor"
    },
    {
      "inputs": [],
      "name": "certificate",
      "outputs": [
        {
          "internalType": "string",
          "name": "email",
          "type": "string"
        },
        {
          "internalType": "string",
          "name": "certName",
          "type": "string"
        },
        {
          "internalType": "string",
          "name": "CertificationLevel",
          "type": "string"
        },
        {
          "internalType": "string",
          "name": "issuerName",
          "type": "string"
        },
        {
          "internalType": "string",
          "name": "issuerId",
          "type": "string"
        },
        {
          "internalType": "string",
          "name": "issuedBy",
          "type": "string"
        },
        {
          "internalType": "string",
          "name": "issuedByDesgnation",
          "type": "string"
        },
        {
          "internalType": "string",
          "name": "creationDate",
          "type": "string"
        },
        {
          "internalType": "string",
          "name": "certId",
          "type": "string"
        },
        {
          "internalType": "uint256",
          "name": "fees",
          "type": "uint256"
        },
        {
          "internalType": "uint256",
          "name": "maximumMarks",
          "type": "uint256"
        },
        {
          "internalType": "uint256",
          "name": "marks",
          "type": "uint256"
        }
      ],
      "stateMutability": "view",
      "type": "function"
    }
  ],
  "bytecode": "0x60806040523480156200001157600080fd5b5060405162000fc638038062000fc6833981810160405281019062000037919062000461565b6040518061018001604052808a8152602001898152602001888152602001876000815181106200006c576200006b62000763565b5b602002602001015181526020018760018151811062000090576200008f62000763565b5b6020026020010151815260200187600281518110620000b457620000b362000763565b5b6020026020010151815260200187600381518110620000d857620000d762000763565b5b6020026020010151815260200186815260200185815260200184815260200183815260200182815250600080820151816000019080519060200190620001209291906200024d565b5060208201518160010190805190602001906200013f9291906200024d565b5060408201518160020190805190602001906200015e9291906200024d565b5060608201518160030190805190602001906200017d9291906200024d565b5060808201518160040190805190602001906200019c9291906200024d565b5060a0820151816005019080519060200190620001bb9291906200024d565b5060c0820151816006019080519060200190620001da9291906200024d565b5060e0820151816007019080519060200190620001f99291906200024d565b50610100820151816008019080519060200190620002199291906200024d565b50610120820151816009015561014082015181600a015561016082015181600b015590505050505050505050505062000805565b8280546200025b90620006c8565b90600052602060002090601f0160209004810192826200027f5760008555620002cb565b82601f106200029a57805160ff1916838001178555620002cb565b82800160010185558215620002cb579182015b82811115620002ca578251825591602001919060010190620002ad565b5b509050620002da9190620002de565b5090565b5b80821115620002f9576000816000905550600101620002df565b5090565b6000620003146200030e8462000623565b620005fa565b905080838252602082019050828560208602820111156200033a5762000339620007c6565b5b60005b858110156200038f57815167ffffffffffffffff811115620003645762000363620007c1565b5b80860162000373898262000417565b855260208501945060208401935050506001810190506200033d565b5050509392505050565b6000620003b0620003aa8462000652565b620005fa565b905082815260208101848484011115620003cf57620003ce620007cb565b5b620003dc84828562000692565b509392505050565b600082601f830112620003fc57620003fb620007c1565b5b81516200040e848260208601620002fd565b91505092915050565b600082601f8301126200042f576200042e620007c1565b5b81516200044184826020860162000399565b91505092915050565b6000815190506200045b81620007eb565b92915050565b60008060008060008060008060006101208a8c031215620004875762000486620007d5565b5b60008a015167ffffffffffffffff811115620004a857620004a7620007d0565b5b620004b68c828d0162000417565b99505060208a015167ffffffffffffffff811115620004da57620004d9620007d0565b5b620004e88c828d0162000417565b98505060408a015167ffffffffffffffff8111156200050c576200050b620007d0565b5b6200051a8c828d0162000417565b97505060608a015167ffffffffffffffff8111156200053e576200053d620007d0565b5b6200054c8c828d01620003e4565b96505060808a015167ffffffffffffffff81111562000570576200056f620007d0565b5b6200057e8c828d0162000417565b95505060a08a015167ffffffffffffffff811115620005a257620005a1620007d0565b5b620005b08c828d0162000417565b94505060c0620005c38c828d016200044a565b93505060e0620005d68c828d016200044a565b925050610100620005ea8c828d016200044a565b9150509295985092959850929598565b60006200060662000619565b9050620006148282620006fe565b919050565b6000604051905090565b600067ffffffffffffffff82111562000641576200064062000792565b5b602082029050602081019050919050565b600067ffffffffffffffff82111562000670576200066f62000792565b5b6200067b82620007da565b9050602081019050919050565b6000819050919050565b60005b83811015620006b257808201518184015260208101905062000695565b83811115620006c2576000848401525b50505050565b60006002820490506001821680620006e157607f821691505b60208210811415620006f857620006f762000734565b5b50919050565b6200070982620007da565b810181811067ffffffffffffffff821117156200072b576200072a62000792565b5b80604052505050565b7f4e487b7100000000000000000000000000000000000000000000000000000000600052602260045260246000fd5b7f4e487b7100000000000000000000000000000000000000000000000000000000600052603260045260246000fd5b7f4e487b7100000000000000000000000000000000000000000000000000000000600052604160045260246000fd5b600080fd5b600080fd5b600080fd5b600080fd5b600080fd5b6000601f19601f8301169050919050565b620007f68162000688565b81146200080257600080fd5b50565b6107b180620008156000396000f3fe608060405234801561001057600080fd5b506004361061002b5760003560e01c80632dbf7b9814610030575b600080fd5b610038610059565b6040516100509c9b9a999897969594939291906105b7565b60405180910390f35b600080600001805461006a90610709565b80601f016020809104026020016040519081016040528092919081815260200182805461009690610709565b80156100e35780601f106100b8576101008083540402835291602001916100e3565b820191906000526020600020905b8154815290600101906020018083116100c657829003601f168201915b5050505050908060010180546100f890610709565b80601f016020809104026020016040519081016040528092919081815260200182805461012490610709565b80156101715780601f1061014657610100808354040283529160200191610171565b820191906000526020600020905b81548152906001019060200180831161015457829003601f168201915b50505050509080600201805461018690610709565b80601f01602080910402602001604051908101604052809291908181526020018280546101b290610709565b80156101ff5780601f106101d4576101008083540402835291602001916101ff565b820191906000526020600020905b8154815290600101906020018083116101e257829003601f168201915b50505050509080600301805461021490610709565b80601f016020809104026020016040519081016040528092919081815260200182805461024090610709565b801561028d5780601f106102625761010080835404028352916020019161028d565b820191906000526020600020905b81548152906001019060200180831161027057829003601f168201915b5050505050908060040180546102a290610709565b80601f01602080910402602001604051908101604052809291908181526020018280546102ce90610709565b801561031b5780601f106102f05761010080835404028352916020019161031b565b820191906000526020600020905b8154815290600101906020018083116102fe57829003601f168201915b50505050509080600501805461033090610709565b80601f016020809104026020016040519081016040528092919081815260200182805461035c90610709565b80156103a95780601f1061037e576101008083540402835291602001916103a9565b820191906000526020600020905b81548152906001019060200180831161038c57829003601f168201915b5050505050908060060180546103be90610709565b80601f01602080910402602001604051908101604052809291908181526020018280546103ea90610709565b80156104375780601f1061040c57610100808354040283529160200191610437565b820191906000526020600020905b81548152906001019060200180831161041a57829003601f168201915b50505050509080600701805461044c90610709565b80601f016020809104026020016040519081016040528092919081815260200182805461047890610709565b80156104c55780601f1061049a576101008083540402835291602001916104c5565b820191906000526020600020905b8154815290600101906020018083116104a857829003601f168201915b5050505050908060080180546104da90610709565b80601f016020809104026020016040519081016040528092919081815260200182805461050690610709565b80156105535780601f1061052857610100808354040283529160200191610553565b820191906000526020600020905b81548152906001019060200180831161053657829003601f168201915b50505050509080600901549080600a01549080600b015490508c565b600061057a826106b0565b61058481856106bb565b93506105948185602086016106d6565b61059d8161076a565b840191505092915050565b6105b1816106cc565b82525050565b60006101808201905081810360008301526105d2818f61056f565b905081810360208301526105e6818e61056f565b905081810360408301526105fa818d61056f565b9050818103606083015261060e818c61056f565b90508181036080830152610622818b61056f565b905081810360a0830152610636818a61056f565b905081810360c083015261064a818961056f565b905081810360e083015261065e818861056f565b9050818103610100830152610673818761056f565b90506106836101208301866105a8565b6106916101408301856105a8565b61069f6101608301846105a8565b9d9c50505050505050505050505050565b600081519050919050565b600082825260208201905092915050565b6000819050919050565b60005b838110156106f45780820151818401526020810190506106d9565b83811115610703576000848401525b50505050565b6000600282049050600182168061072157607f821691505b602082108114156107355761073461073b565b5b50919050565b7f4e487b7100000000000000000000000000000000000000000000000000000000600052602260045260246000fd5b6000601f19601f830116905091905056fea264697066735822122056bd4d73e7fbed9a4d23c3d23dfcf86f020c9af74f2a8467397abaaef4fc239164736f6c63430008070033",
  "linkReferences": {},
  "deployedLinkReferences": {}
}