{
  "_format": "hh-sol-artifact-1",
  "contractName": "GenerateCertificate",
  "sourceName": "contracts/certificate2.sol",
  "abi": [
    {
      "inputs": [
        {
          "internalType": "string",
          "name": "_email",
          "type": "string"
        },
        {
          "internalType": "string",
          "name": "_certName",
          "type": "string"
        },
        {
          "internalType": "string",
          "name": "_CertificationLevel",
          "type": "string"
        },
        {
          "internalType": "string[]",
          "name": "_issuerDetails",
          "type": "string[]"
        },
        {
          "internalType": "string",
          "name": "_creationDate",
          "type": "string"
        },
        {
          "internalType": "string",
          "name": "_certId",
          "type": "string"
        },
        {
          "internalType": "uint256",
          "name": "_fees",
          "type": "uint256"
        },
        {
          "internalType": "uint256",
          "name": "_maximumMarks",
          "type": "uint256"
        },
        {
          "internalType": "uint256",
          "name": "_marks",
          "type": "uint256"
        }
      ],
      "stateMutability": "nonpayable",
      "type": "constructor"
    },
    {
      "inputs": [],
      "name": "certificate",
      "outputs": [
        {
          "internalType": "string",
          "name": "email",
          "type": "string"
        },
        {
          "internalType": "string",
          "name": "certName",
          "type": "string"
        },
        {
          "internalType": "string",
          "name": "CertificationLevel",
          "type": "string"
        },
        {
          "internalType": "string",
          "name": "issuerName",
          "type": "string"
        },
        {
          "internalType": "string",
          "name": "issuerId",
          "type": "string"
        },
        {
          "internalType": "string",
          "name": "issuedBy",
          "type": "string"
        },
        {
          "internalType": "string",
          "name": "issuedByDesgnation",
          "type": "string"
        },
        {
          "internalType": "string",
          "name": "creationDate",
          "type": "string"
        },
        {
          "internalType": "string",
          "name": "certId",
          "type": "string"
        },
        {
          "internalType": "uint256",
          "name": "fees",
          "type": "uint256"
        },
        {
          "internalType": "uint256",
          "name": "maximumMarks",
          "type": "uint256"
        },
        {
          "internalType": "uint256",
          "name": "marks",
          "type": "uint256"
        }
      ],
      "stateMutability": "view",
      "type": "function"
    }
  ],
  "bytecode": "0x60806040523480156200001157600080fd5b506040516200117f3803806200117f8339818101604052810190620000379190620004d8565b6040518061018001604052808a8152602001898152602001888152602001876000815181106200006c576200006b62000671565b5b602002602001015181526020018760018151811062000090576200008f62000671565b5b6020026020010151815260200187600281518110620000b457620000b362000671565b5b6020026020010151815260200187600381518110620000d857620000d762000671565b5b6020026020010151815260200186815260200185815260200184815260200183815260200182815250600080820151816000019081620001199190620008e1565b506020820151816001019081620001319190620008e1565b506040820151816002019081620001499190620008e1565b506060820151816003019081620001619190620008e1565b506080820151816004019081620001799190620008e1565b5060a0820151816005019081620001919190620008e1565b5060c0820151816006019081620001a99190620008e1565b5060e0820151816007019081620001c19190620008e1565b50610100820151816008019081620001da9190620008e1565b50610120820151816009015561014082015181600a015561016082015181600b0155905050505050505050505050620009c8565b6000604051905090565b600080fd5b600080fd5b600080fd5b600080fd5b6000601f19601f8301169050919050565b7f4e487b7100000000000000000000000000000000000000000000000000000000600052604160045260246000fd5b62000277826200022c565b810181811067ffffffffffffffff821117156200029957620002986200023d565b5b80604052505050565b6000620002ae6200020e565b9050620002bc82826200026c565b919050565b600067ffffffffffffffff821115620002df57620002de6200023d565b5b620002ea826200022c565b9050602081019050919050565b60005b8381101562000317578082015181840152602081019050620002fa565b60008484015250505050565b60006200033a6200033484620002c1565b620002a2565b90508281526020810184848401111562000359576200035862000227565b5b62000366848285620002f7565b509392505050565b600082601f83011262000386576200038562000222565b5b81516200039884826020860162000323565b91505092915050565b600067ffffffffffffffff821115620003bf57620003be6200023d565b5b602082029050602081019050919050565b600080fd5b6000620003ec620003e684620003a1565b620002a2565b90508083825260208201905060208402830185811115620004125762000411620003d0565b5b835b818110156200046057805167ffffffffffffffff8111156200043b576200043a62000222565b5b8086016200044a89826200036e565b8552602085019450505060208101905062000414565b5050509392505050565b600082601f83011262000482576200048162000222565b5b815162000494848260208601620003d5565b91505092915050565b6000819050919050565b620004b2816200049d565b8114620004be57600080fd5b50565b600081519050620004d281620004a7565b92915050565b60008060008060008060008060006101208a8c031215620004fe57620004fd62000218565b5b60008a015167ffffffffffffffff8111156200051f576200051e6200021d565b5b6200052d8c828d016200036e565b99505060208a015167ffffffffffffffff8111156200055157620005506200021d565b5b6200055f8c828d016200036e565b98505060408a015167ffffffffffffffff8111156200058357620005826200021d565b5b620005918c828d016200036e565b97505060608a015167ffffffffffffffff811115620005b557620005b46200021d565b5b620005c38c828d016200046a565b96505060808a015167ffffffffffffffff811115620005e757620005e66200021d565b5b620005f58c828d016200036e565b95505060a08a015167ffffffffffffffff8111156200061957620006186200021d565b5b620006278c828d016200036e565b94505060c06200063a8c828d01620004c1565b93505060e06200064d8c828d01620004c1565b925050610100620006618c828d01620004c1565b9150509295985092959850929598565b7f4e487b7100000000000000000000000000000000000000000000000000000000600052603260045260246000fd5b600081519050919050565b7f4e487b7100000000000000000000000000000000000000000000000000000000600052602260045260246000fd5b60006002820490506001821680620006f357607f821691505b602082108103620007095762000708620006ab565b5b50919050565b60008190508160005260206000209050919050565b60006020601f8301049050919050565b600082821b905092915050565b600060088302620007737fffffffffffffffffffffffffffffffffffffffffffffffffffffffffffffffff8262000734565b6200077f868362000734565b95508019841693508086168417925050509392505050565b6000819050919050565b6000620007c2620007bc620007b6846200049d565b62000797565b6200049d565b9050919050565b6000819050919050565b620007de83620007a1565b620007f6620007ed82620007c9565b84845462000741565b825550505050565b600090565b6200080d620007fe565b6200081a818484620007d3565b505050565b5b8181101562000842576200083660008262000803565b60018101905062000820565b5050565b601f82111562000891576200085b816200070f565b620008668462000724565b8101602085101562000876578190505b6200088e620008858562000724565b8301826200081f565b50505b505050565b600082821c905092915050565b6000620008b66000198460080262000896565b1980831691505092915050565b6000620008d18383620008a3565b9150826002028217905092915050565b620008ec82620006a0565b67ffffffffffffffff8111156200090857620009076200023d565b5b620009148254620006da565b6200092182828562000846565b600060209050601f83116001811462000959576000841562000944578287015190505b620009508582620008c3565b865550620009c0565b601f19841662000969866200070f565b60005b8281101562000993578489015182556001820191506020850194506020810190506200096c565b86831015620009b35784890151620009af601f891682620008a3565b8355505b6001600288020188555050505b505050505050565b6107a780620009d86000396000f3fe608060405234801561001057600080fd5b506004361061002b5760003560e01c80632dbf7b9814610030575b600080fd5b610038610059565b6040516100509c9b9a99989796959493929190610618565b60405180910390f35b600080600001805461006a90610740565b80601f016020809104026020016040519081016040528092919081815260200182805461009690610740565b80156100e35780601f106100b8576101008083540402835291602001916100e3565b820191906000526020600020905b8154815290600101906020018083116100c657829003601f168201915b5050505050908060010180546100f890610740565b80601f016020809104026020016040519081016040528092919081815260200182805461012490610740565b80156101715780601f1061014657610100808354040283529160200191610171565b820191906000526020600020905b81548152906001019060200180831161015457829003601f168201915b50505050509080600201805461018690610740565b80601f01602080910402602001604051908101604052809291908181526020018280546101b290610740565b80156101ff5780601f106101d4576101008083540402835291602001916101ff565b820191906000526020600020905b8154815290600101906020018083116101e257829003601f168201915b50505050509080600301805461021490610740565b80601f016020809104026020016040519081016040528092919081815260200182805461024090610740565b801561028d5780601f106102625761010080835404028352916020019161028d565b820191906000526020600020905b81548152906001019060200180831161027057829003601f168201915b5050505050908060040180546102a290610740565b80601f01602080910402602001604051908101604052809291908181526020018280546102ce90610740565b801561031b5780601f106102f05761010080835404028352916020019161031b565b820191906000526020600020905b8154815290600101906020018083116102fe57829003601f168201915b50505050509080600501805461033090610740565b80601f016020809104026020016040519081016040528092919081815260200182805461035c90610740565b80156103a95780601f1061037e576101008083540402835291602001916103a9565b820191906000526020600020905b81548152906001019060200180831161038c57829003601f168201915b5050505050908060060180546103be90610740565b80601f01602080910402602001604051908101604052809291908181526020018280546103ea90610740565b80156104375780601f1061040c57610100808354040283529160200191610437565b820191906000526020600020905b81548152906001019060200180831161041a57829003601f168201915b50505050509080600701805461044c90610740565b80601f016020809104026020016040519081016040528092919081815260200182805461047890610740565b80156104c55780601f1061049a576101008083540402835291602001916104c5565b820191906000526020600020905b8154815290600101906020018083116104a857829003601f168201915b5050505050908060080180546104da90610740565b80601f016020809104026020016040519081016040528092919081815260200182805461050690610740565b80156105535780601f1061052857610100808354040283529160200191610553565b820191906000526020600020905b81548152906001019060200180831161053657829003601f168201915b50505050509080600901549080600a01549080600b015490508c565b600081519050919050565b600082825260208201905092915050565b60005b838110156105a957808201518184015260208101905061058e565b60008484015250505050565b6000601f19601f8301169050919050565b60006105d18261056f565b6105db818561057a565b93506105eb81856020860161058b565b6105f4816105b5565b840191505092915050565b6000819050919050565b610612816105ff565b82525050565b6000610180820190508181036000830152610633818f6105c6565b90508181036020830152610647818e6105c6565b9050818103604083015261065b818d6105c6565b9050818103606083015261066f818c6105c6565b90508181036080830152610683818b6105c6565b905081810360a0830152610697818a6105c6565b905081810360c08301526106ab81896105c6565b905081810360e08301526106bf81886105c6565b90508181036101008301526106d481876105c6565b90506106e4610120830186610609565b6106f2610140830185610609565b610700610160830184610609565b9d9c50505050505050505050505050565b7f4e487b7100000000000000000000000000000000000000000000000000000000600052602260045260246000fd5b6000600282049050600182168061075857607f821691505b60208210810361076b5761076a610711565b5b5091905056fea26469706673582212200303330c3572f69058ab12776a85d141260632f979353287cdf42a37664b99d364736f6c63430008130033",
  "linkReferences": {},
  "deployedLinkReferences": {}
}