{
  "_format": "hh-sol-artifact-1",
  "contractName": "test",
  "sourceName": "contracts/deleteKeyWord.sol",
  "abi": [
    {
      "inputs": [
        {
          "internalType": "address",
          "name": "",
          "type": "address"
        }
      ],
      "name": "map",
      "outputs": [
        {
          "internalType": "uint256",
          "name": "",
          "type": "uint256"
        }
      ],
      "stateMutability": "view",
      "type": "function"
    },
    {
      "inputs": [
        {
          "internalType": "address",
          "name": "_addr",
          "type": "address"
        }
      ],
      "name": "removeMap",
      "outputs": [],
      "stateMutability": "nonpayable",
      "type": "function"
    },
    {
      "inputs": [
        {
          "internalType": "uint256",
          "name": "_a",
          "type": "uint256"
        }
      ],
      "name": "setMap",
      "outputs": [],
      "stateMutability": "nonpayable",
      "type": "function"
    }
  ],
  "bytecode": "0x608060405234801561001057600080fd5b506102a4806100206000396000f3fe608060405234801561001057600080fd5b50600436106100415760003560e01c8063b721ef6e14610046578063d445682f14610076578063fd98437614610092575b600080fd5b610060600480360381019061005b91906101b4565b6100ae565b60405161006d91906101fa565b60405180910390f35b610090600480360381019061008b91906101b4565b6100c6565b005b6100ac60048036038101906100a79190610241565b61010b565b005b60006020528060005260406000206000915090505481565b6000808273ffffffffffffffffffffffffffffffffffffffff1673ffffffffffffffffffffffffffffffffffffffff1681526020019081526020016000206000905550565b806000803373ffffffffffffffffffffffffffffffffffffffff1673ffffffffffffffffffffffffffffffffffffffff1681526020019081526020016000208190555050565b600080fd5b600073ffffffffffffffffffffffffffffffffffffffff82169050919050565b600061018182610156565b9050919050565b61019181610176565b811461019c57600080fd5b50565b6000813590506101ae81610188565b92915050565b6000602082840312156101ca576101c9610151565b5b60006101d88482850161019f565b91505092915050565b6000819050919050565b6101f4816101e1565b82525050565b600060208201905061020f60008301846101eb565b92915050565b61021e816101e1565b811461022957600080fd5b50565b60008135905061023b81610215565b92915050565b60006020828403121561025757610256610151565b5b60006102658482850161022c565b9150509291505056fea264697066735822122037188bdbdc74875fd604362b8ad0dbc4d40dbf6f2394cb31bb0770dbf748bb4b64736f6c63430008130033",
  "linkReferences": {},
  "deployedLinkReferences": {}
}